:100000000C941C040C94D30D0C9463040C946304A2
:100010000C9463040C9463040C9463040C946304C4
:100020000C9463040C9463040C94CE220C94A023CF
:100030000C944F1B0C9463040C9463040C946304A1
:100040000C9463040C9463040C9463040C94630494
:100050000C9463040C949C1B0C9463040C94630434
:100060000C9463040C9463040C9463040C94630474
:100070000C9463040C9463040C9463040C94630464
:100080000C9463040C9463040C9463040C94630454
:100090000C9463040C9463040C9463040C94630444
:1000A0000C9463040C9463040C94630428112811C9
:1000B0005A115A11A711C511E612E612D011651294
:1000C00076127612D612E612E612DF128613861325
:1000D000981398138F1398139813981386138613F5
:1000E00094139813981394130D2434242C2534243A
:1000F0002C258024A3242C25FA240925290014006A
:100100001A00080015001700E3000400160007009D
:1001100009000A002B001D001B0006001900050045
:10012000E0000100E100E20001512C002A00130070
:1001300012000C0018001C00340033000F000E00E9
:100140000D000B0039003800370036001000110098
:100150002800010001004C000251E50001001E00D2
:100160001F0020002100220001004A004B004E0029
:100170004D00000001003A003B003C003D003E0005
:100180000100010001000100010001000100270041
:10019000260025002400230001004F0052005100DA
:1001A00050000000010043004200410040003F00B9
:1001B00001000100010001001F50010001001E02AA
:1001C0001F0220022102220201002D002D022E001A
:1001D000570035000100010001000100B600B70022
:1001E00001000100010001000F5101003100300247
:1001F0002F02250224022302010030002F002702D3
:100200002602350201000100A800AA00A900AE00E4
:10021000010001000100010001000100290014009B
:100220001A000800150017002B0004001600070034
:1002300009000A00E1001D001B0006000100050086
:10024000E00001004C00E2000451E1000100130055
:1002500012000C0018001C00010001000100010048
:100260000100010001000100010001000100010086
:1002700001001050010001000100010001001E00FA
:100280001F0020002100220001001E021F02200288
:100290002102220201000100010001000100010011
:1002A0000100010001000100010001000100010046
:1002B0000100010001000100010001000100010036
:1002C0000100010001000100010001000100010026
:1002D00001000100010001000F51010001000100B7
:1002E0000100010001000100010001000100010006
:1002F00001000100010001000100010001000100F6
:1003000001000100010001000100010001000100E5
:1003100001000100010001000100010001000100D5
:10069000010001000100010001000100005C0100F7
:1006A000010001000100010001000100A500A600F9
:1006B000A70001000100010001000100135001002A
:1006C000010001000100010001000100B200010071
:1006D0000100010001000100010001000100010012
:1006E00001000100010001000100010010500100A3
:1006F00001000100010001000100010004033000BD
:10070000000012034C006500760069006E00730063
:100710006F006E0000000E034B0065006500620074
:1007200069006F0000000403090409023B00020194
:1007300000A0FA09040000010301010009211101D0
:1007400000012240000705810308000A0904010096
:1007500001030000000921110100012281000705A9
:10076000820320000A120110010000000810CB468D
:100770003100030102030105010902A101850209FB
:1007800001A1000509190129051500250195057527
:1007900001810295017503810105010930093115B7
:1007A00081257F95027508810609381581257F9579
:1007B0000175088106050C0A38021581257F95010F
:1007C00075088106C0C005010980A10185031901D2
:1007D0002AB700150126B700950175108100C005E4
:1007E0000C0901A101850419012AA002150126A006
:1007F00002950175108100C005010906A1010507D8
:1008000019E029E715002501950875018102950178
:10081000750881010507190029FF150026FF0095BD
:1008200006750881000508190129059505750191CE
:1008300002950175039101C011241FBECFEFDAE0CC
:10084000DEBFCDBF04B603FE27C080915F0290914A
:100850006002A0916102B09162028730904BA74084
:10086000B04BD1F410925F021092600210926102BC
:100870001092620214BE84B7877F84BF0FB6F894CB
:10088000A89580916000886180936000109260005C
:100890000FBEE0E0F8E3099511E0A0E0B1E0ECE381
:1008A000FCE402C005900D92A439B107D9F722E00B
:1008B000A4E9B1E001C01D92AF35B207E1F70E9493
:1008C00008200C941C260C9400000E94C10985E0AD
:1008D0000E942F0A60E070E0CB010E94301A0C9455
:1008E0003C1A81E0089581E008950C947304089502
:1008F0000C9477041F93CF93DF9300D000D01F9206
:10090000CDB7DEB749835A836B833091B4018981B7
:100910009A81311114C0662359F0222349F00E94B4
:10092000C418182F682F89819A810E946B1803C000
:100930000E949718182F69817A81812F04C00E9424
:10094000C41869817A810F900F900F900F900F90CB
:10095000DF91CF911F910C943405FC01262F40812B
:1009600051816281738184810C947A04CF93DF93E7
:10097000EC0160E00E94AD04BE01DF91CF910C94C8
:1009800078040E94F619811102C00E949F1A0E94E9
:10099000D40A0C9450070C944C0708950E947413C9
:1009A0000E94CD042FEF84E39CE0215080409040D2
:1009B000E1F700C000000C94C21B0F931F93CF936C
:1009C000DF93EC0161E00E94AD048C01BE010E9446
:1009D0007504882379F1BE01C8010E94350A882375
:1009E00049F1BE01C8010E947C0B882319F1BE01A8
:1009F000C8010E94CE0B8823E9F0BE01C8010E9405
:100A0000F90C8823B9F08A81882369F001158CE5F7
:100A1000180731F00F3D1C4531F40E949F1A0AC09F
:100A20000E94CE0407C0CE01DF91CF911F910F919C
:100A30000C94710480E0DF91CF911F910F91089584
:100A400008950C94200581E008950C942305CF931C
:100A5000C82F0E9421058C2F0E942505CF91089553
:100A600080E090E00895089520E3829FC001112462
:100A7000FC0126E0729FE00DF11D1124E60FF11D2F
:100A8000EE0FFF1FE450FF4F859194910895880F5A
:100A9000991FFC01E450F94F859194910895CF93EB
:100AA000DF930E9434050E946706EC018115904592
:100AB00008F041C0C11580E4D80708F0D1C0C83E95
:100AC000D10510F5C03ED10508F0FDC0C83AD105EA
:100AD00078F4C53AD10508F0A2C0C130D10509F4B7
:100AE000F2C008F4EEC0C430D10508F0ECC0E9C093
:100AF000CF3BD10508F49BC0C03CD10508F4E1C050
:100B0000CE01805C91099EC0C11590E2D90758F4CE
:100B1000C11521E0D20708F0D6C0C03FD10508F4C6
:100B2000D0C0D065D0C0C11580E3D80708F08EC012
:100B3000CE019F7087C0C11595E5D90708F043C065
:100B4000C11524E5D20708F0A2C0C11582E5D80777
:100B500008F5C11591E5D90708F085C0CE0174E00C
:100B6000969587957A95E1F783709C2F937021E095
:100B700030E002C0220F331F9A95E2F73C68382B11
:100B8000CF70C695C69580E2C89FE0011124C22BA4
:100B9000D32B99C09E01237033278C2F8695869581
:100BA000C115D34508F064C0C1E0D0E002C0CC0F4D
:100BB000DD1F2A95E2F720E2829FC0011124C82B95
:100BC000D92BDC6880C0C11529E5D207A0F4C11576
:100BD00088E5D80708F060C0C11596E5D90708F088
:100BE00070C08C2F0E94FB068F71C82FD0E0DC2FC5
:100BF000CC27D06268C0C1152AE5D20708F451C0DD
:100C0000CE0190568115904208F05BC08D2F8F71F8
:100C10000E94FB06DD27D0628F71D82B54C0C55AC5
:100C2000D0E0C05ADE4FC881D0E0D0644CC0C85A72
:100C3000D0E0CC0FDD1FCE5CDE4F0990D881C02DF7
:100C4000D46441C00E944705EC013DC0CE01992704
:100C5000D3FF03C0EC01D86C36C0EC01D06C33C0BC
:100C6000DF70D06A30C0DC2FCC27C16FD06A2BC0B8
:100C7000C1E0D0E002C0CC0FDD1F2A95E2F720E2F0
:100C8000829FC0011124C82BD92BDA681CC0DC2F2D
:100C9000CC27C46FD06A17C0DC2FCC27C06FD06AB6
:100CA00012C08C2F8F700E94FB0694E0D695C795DA
:100CB0009A95E1F7CF70D0E0DC2FCC27D069C82B14
:100CC00002C0C0E0D0E0CE01DF91CF91089582381C
:100CD000910569F1B0F48133910509F46DC048F4D0
:100CE0008932910509F463C08A32910509F469C01B
:100CF00008958533910509F455C089339105B9F0FC
:100D00000895833E910569F138F4803E9105B1F074
:100D1000823E910509F10895863E9105A9F1873E2D
:100D20009105B9F1843E910509F064C023C020917A
:100D3000500220FD4FC021FD4DC00895809150020A
:100D400080FD44C08091510280FF44C080915002D8
:100D500084FD42C083EE4DC08091500282FF38C0B6
:100D6000F5CF8091500282FD33C08091510280FD09
:100D700031C0ECCF8091510281FF32C0809150028E
:100D800084FD2AC087EE35C08091500283FF26C0C3
:100D9000F5CF8091500283FD21C08091510281FDE9
:100DA0001FC0ECCF8091500285FD1CC01DC08091FA
:100DB000500285FD19C016C08091500286FD16C0F4
:100DC00017C08091500286FD13C010C089E311C086
:100DD00082EE0FC080EE0DC080E00BC086EE09C031
:100DE00084EE07C089E205C085E303C08AE201C042
:100DF00081E390E008959091500292FF0DC0282F5A
:100E00002871283019F4877F846006C0282F247148
:100E1000243011F48B7F886093FF0DC0282F287138
:100E2000283119F4877E846106C0282F247124316B
:100E300011F48B7E88612091510220FF0DC0382F64
:100E40003871383019F4877F816006C0382F3171CE
:100E5000313011F48E7F886021FF0DC0282F28715A
:100E6000283119F4877E816106C0282F2171213134
:100E700011F48E7E886194FD877E0895E82FF0E05E
:100E8000EF5BFD4F80810895089580EA8A95F1F720
:100E9000089508950C9449070C944A070C94490747
:100EA0000C944E07F894E82FE295EF70F0E031A132
:100EB000282F2F7081E090E001C0880F2A95EAF773
:100EC000982F9095932391A392A1892B82A3789434
:100ED00008950895EF92FF920F931F93CF93DF939E
:100EE000CDB7DEB72E970FB6F894DEBF0FBECDBFDD
:100EF0000E94FD0880910E0181112FC0FE013196E4
:100F000028E0DF011D922A95E9F724E9298322E3ED
:100F10002A8323E32B8321E32C83CF01E6E0F1E056
:100F20009E01275F3F4FDC014D91CD014193A217F8
:100F3000B307C9F726E0ECE2F1E0DE011996019073
:100F40000D922A95E1F7FC01A0E0B1E0CE010F96E9
:100F500021912D93E817F907D9F780910E0181119E
:100F600002C094E001C090E090934A0284E0891BA3
:100F70008093490206E011E0F80181918F010E94FF
:100F80005207F1E00A301F07B9F700E011E086E0F0
:100F9000E82E81E0F82ED8018D918D010E94520734
:100FA000E016F106C1F7E9E3F2E0A1E4B2E081E482
:100FB00092E011921D928E179F07D9F784E00E944C
:100FC000A2080E94C1042E960FB6F894DEBF0FBE91
:100FD000CDBFDF91CF911F910F91FF90EF900C94B7
:100FE00007090E94E0088823F1F08091490290E00F
:100FF0008F5B9D4F0E941A09811111C0809194014D
:101000008F5F80939401863060F0E0914902F0E0B8
:10101000EF5BFD4F108211821282138202C0109288
:1010200094010C94CB0480914A0290E08F5B9D4F19
:101030000E943F090C9469078F929F92AF92BF92D2
:10104000CF92DF92EF92FF920F931F93CF93DF9394
:1010500086E0A82E81E0B82EC9E3D2E09AE0E92E1E
:1010600091E0F92E912C01E010E06501F5018081FD
:10107000F894E82FE295EF70F0E021A18F70A801BD
:1010800002C0440F551F8A95E2F7CA01922F982B90
:1010900091A392A18095892382A378940E94450709
:1010A000E0E0F1E020E030E0812C4191A42FA29516
:1010B000AF70B0E090968C9190E04F7002C0959523
:1010C00087954A95E2F780FD07C0802F022E01C068
:1010D000880F0A94EAF701C080E0882A2F5F3F4F0B
:1010E0002630310511F75FEFA51AB50AF6018081A8
:1010F0000E9452078881881619F0888281E001C019
:1011000080E0982A2196EA14FB0409F0AECF6091A2
:101110004A0270E06F5B7D4F292D44E089E392E045
:101120000E94A3080E94F107892DDF91CF911F91A2
:101130000F91FF90EF90DF90CF90BF90AF909F9076
:101140008F9008950895FF920F931F93CF93DF938D
:101150008C01F62ED72FC42F222349F081E08093F3
:1011600097010E94811B9093960180939501809135
:1011700097018823C1F080919501909196010E947A
:101180008D1B069780F0EF2DFD2FD8014C2F50E0DE
:10119000CD01801B910B841795071CF48D918193D1
:1011A000F7CF10929701DF91CF911F910F91FF9090
:1011B000089552985A9889B182FB882780F908953A
:1011C00080919801811112C08091D8008061809334
:1011D000D8008AE18A95F1F700C08091D90080FD9E
:1011E00002C082E001C081E08093980181E090918B
:1011F0009801913009F080E008950E94D908809309
:101200000E010E94E00881110C940E0908950E94BD
:10121000E008811102C00C941409089561E070E0A7
:101220008FE091E00C94850D61E070E08FE091E03B
:101230000C948C0DCF93DF93D82FC92F0E94240ECE
:10124000892BC9F4ED2FFC2F80E090E0DC01A5563E
:10125000BE4F2C912193019684309105B9F70E94DD
:101260005109882319F00E94550901C080E080933C
:101270009A0181E001C080E0DF91CF91089520E0E4
:1012800030E0FC014191CF01F901E556FE4F40836A
:101290002F5F3F4F24303105A1F780919A010C94C4
:1012A0006A0A80914B028170089580914B02869565
:1012B0008695869508950E94F619811102C00E94B4
:1012C0009F1A0E94271A80934B02282F2695269555
:1012D000269530E02830310524F0877088638093AC
:1012E0004B0280914B0280FF04C0869586958695BF
:1012F00001C080E00C946A0A20914B02822F8695EF
:1013000086958695482F50E04730510554F48F5FFD
:10131000982F990F990F990F822F8770892B80939F
:101320004B0280914B02816080934B020E942B1AEA
:1013300080914B028695869586950C946A0A8091D9
:101340004B02982F969596959695A1F0915E990FE0
:10135000990F990F8770892B80934B02887F91E0BA
:1013600009F490E080914B0290FB80F980934B024E
:101370000E942B1A80914B028695869586950C9437
:101380006A0A80914B0280FD13C0816080934B02FA
:10139000813019F489E080934B0280914B020E94C6
:1013A0002B1A80914B028695869586950C946A0A35
:1013B000089580914B0280FF08C08E7F80934B027E
:1013C0000E942B1A80E00C946A0A089580914B02C7
:1013D00080FD0C94D9090C94C10990914B02892F7E
:1013E0008695869586958F5F8F719770883038F4D3
:1013F000880F880F880F892B80934B0202C090932F
:101400004B0280914B02887F91E009F490E080913B
:101410004B0290FB80F980934B020E942B1A809123
:101420004B028695869586950C946A0A883008F05A
:1014300087E090914B029770282F220F220F220FE6
:10144000922B90934B02987F21E009F420E0909139
:101450004B0220FB90F990934B020C946A0A0E9475
:10146000160A80914B020C942B1A9C01FB0182817D
:10147000882349F12E3BFCE53F07C9F040F42C3BA3
:10148000ECE53E0769F02D3B3C4561F00895203CBA
:101490009CE5390791F070F0213C3C4589F00895B6
:1014A00087E001C080E00E942F0A80E008950E943A
:1014B0009F09FBCF0E947C09F8CF0E94E609F5CF77
:1014C0000E94ED09F2CF81E00895269A2E980895A2
:1014D0002E980895CF92DF92EF92FF92CF93C82F6C
:1014E000883050F4811109C0809180008F7D8093F5
:1014F00080000E94680A06C0C7E080918000806278
:10150000809380002C2F30E0AFEFBFEF0E94C0250A
:1015100027E030E040E050E00E949825B42FA32F50
:10152000922F8827492F5A2F6B2F7727CA014C37C4
:1015300024E1520728F469E070E00E94702529C078
:10154000DB01CA018A50974DAF4FBF4F6627782FF6
:10155000892F9A2F25EF38E241E050E00E9498252C
:1015600069017A01CA01B9010E9460259B01AC01A1
:10157000C701B6010E946025BB27A92F982F872F8E
:10158000009721E0A207B10511F0BC0102C06FEF86
:101590007FEF70938B0060938A00CF91FF90EF9064
:1015A000DF90CF90089508950E94650A82E28093AB
:1015B000800089E1809381008FEF9FEF90938700F7
:1015C000809386000C945B09AF92BF92CF92DF921A
:1015D000EF92FF920F931F93CF93DF937C015B01F8
:1015E000C42FD22FFC0182818823F9F04093A101FE
:1015F0000E94811B9093A00180939F0180E28C0F39
:10160000883008F06EC0C77081E001C0880FCA95AD
:10161000EAF7DF91CF911F910F91FF90EF90DF904C
:10162000CF90BF90AF900C94E4108091A10148132B
:1016300035C080919F019091A0010E948D1B6C018B
:10164000B701C5010E942D16C816D90638F510E25B
:101650001D0FCD17B9F080E28C0F883040F4C770B1
:1016600081E001C0880FCA95EAF70E94EB1018309C
:1016700058F581E09D2F977001C0880F9A95EAF781
:101680000E94E410802F0E94D110183050F5D770BE
:1016900081E001C0880FDA95EAF70AC080E28C0F7A
:1016A0008830F8F4C77081E001C0880FCA95EAF766
:1016B000DF91CF911F910F91FF90EF90DF90CF902E
:1016C000BF90AF900C94EB10802FDF91CF911F91C2
:1016D0000F91FF90EF90DF90CF90BF90AF900C9460
:1016E000D110DF91CF911F910F91FF90EF90DF907C
:1016F000CF90BF90AF9008950F939C01CB01243FF2
:101700004CE5340731F188F4293DFCE53F07D9F079
:101710002A3D4CE5340779F1283D3C45A9F506E220
:1017200021EE41EE68ED7CE52BC0263FFCE53F074E
:10173000E1F0A8F0273F3C4539F507E225EE46EEFB
:1017400067EF7CE51DC007E225EE45EE69ED7CE51F
:1017500017C006E221EE40EE64EF7CE511C007E21F
:1017600025EE44EE65EF7CE50BC006E221EE42EE8D
:1017700066EF7CE505C008E221E045EE6AED7CE518
:101780000E94E40A80E008C0FC018281882319F0ED
:101790001092A10101C081E00F910895CF93DF93D2
:1017A000EC01FB018281882309F41FC1C230FCE5F2
:1017B000DF0708F41BC1C6319CE5D90738F09E014C
:1017C0002B5F3C452930310508F010C10E94091AF1
:1017D0009093510280935002C031ECE5DE0709F48A
:1017E000C3C008F041C0C8308CE5D80709F49AC0DE
:1017F000F0F4C430ECE5DE0709F487C068F4C230C9
:101800008CE5D80709F477C0C330DC4509F0E3C0A4
:1018100080915002826076C0C630ECE5DE0709F4A4
:101820006EC008F07BC08091500288606BC0CC30E5
:101830008CE5D80709F485C068F4CA30ECE5DE070A
:1018400009F474C008F079C00E94741380915002AA
:10185000806858C0CE308CE5D80709F476C008F00F
:101860007FC0809150028BC0CC3FECE5DE0709F4CD
:101870004FC018F5C3318CE5D80709F47DC078F462
:10188000C131ECE5DE0709F473C0C231DC4509F073
:10189000A2C00E947413809150028F7733C0C5316B
:1018A0008CE5D80709F472C008F486C0CB3FDC454C
:1018B00009F091C0809151023EC0C115FDE5DF07DE
:1018C00009F45FC058F4CE3F9CE5D90709F444C041
:1018D00008F43FC08091510282602DC0C230FDE506
:1018E000DF0709F475C008F45DC0C330DD4509F0B9
:1018F00072C080E06EC080915002816003C0809110
:10190000500280618093500266C08091500211C0E5
:10191000809151028260809351025DC0809150029B
:101920008062F0CF809150028064ECCF80915002B1
:1019300088608460E7CF8160EECF809150028E7F17
:10194000E1CF809150028D7FDDCF80915002877F63
:10195000D9CF8091510218C0809151028D7FDBCF89
:10196000809150028F7ECECF809150028F7DCACF62
:10197000809150028F7BC6CF80915002877F8B7FF2
:10198000C1CF809151028D7F8E7FC5CF8091500253
:1019900082FB222720F991E0922790FB82F990FBAD
:1019A00083F9B0CF80915102982F909591708E7FDE
:1019B000892B90FB81F9AFCF0E9474138091500264
:1019C00087FB222720F991E0922790FB87F99ACF95
:1019D00081E00E94A11A80915002909151020E94D0
:1019E0001A1A0E94741380E001C081E0DF91CF9148
:1019F0000895CF93DF9386319C4541F5EB010E941A
:101A00004519982F8A812091170130911801882358
:101A100079F09A7A81E009F480E08093A201911133
:101A200002C069E201C065E3C9010E94E81A0AC068
:101A30008091A201811102C069E201C065E3C90180
:101A40000E94EA1A0E94931980E001C081E0DF91B0
:101A5000CF9108958EE1489B02C08150E1F7489BE9
:101A6000FECF0895589880E28A95F1F7589A089524
:101A7000FC012AE02A95F1F728E090E080E031E0CF
:101A800040E14A95F1F7880F489B02C08160932797
:101A900000C0000040E14A95F1F7215089F720E1AC
:101AA0002A95F1F729B100C0000030E13A95F1F72D
:101AB000217092272081920F90830895EF92FF92D8
:101AC0000F931F93CF93DF931F92CDB7DEB7198289
:101AD0008C017C01E60EF11C0E151F0551F00E94D1
:101AE0002A0DCE0101960E94380DF80181938F01D5
:101AF000F3CF81E09981911180E00F90DF91CF9138
:101B00001F910F91FF90EF9008959093A4018093FF
:101B1000A301509A589A08959093A4018093A30129
:101B20005098589AE89AE9E6F0E080818C7F8083AB
:101B30000895615091E001C0990F6A95EAF720E09D
:101B400031E0992361F0492F482319F0589A23274F
:101B500001C0589840E24A95F1F79695F2CF2223BA
:101B600011F0589A01C0589880E28A95F1F7589878
:101B70000895FF920F931F93CF93DF93EC018C0195
:101B8000060F111DC017D10741F0F9900E94320DC8
:101B900068E08F2D0E94990DF5CFDF91CF911F91B5
:101BA0000F91FF9008951F920F920FB60F9211247C
:101BB0002F933F934F935F936F937F938F939F9355
:101BC000AF93BF93CF93DF93EF93FF935898509ABF
:101BD000C091A301D091A4016D81662321F08E8173
:101BE0009F810E94B90D0E94320D80E18A95F1F724
:101BF00058985098589A80E18A95F1F76A8166233F
:101C000051F08B819C810E945E0DE881F9818111E8
:101C100004C082E003C0E881F98188E080830E94EB
:101C20002A0DFF91EF91DF91CF91BF91AF919F91DD
:101C30008F917F916F915F914F913F912F910F9075
:101C40000FBE0F901F901895CF93DF93C091A30103
:101C5000D091A401F894509A589885E08A95F1F7AC
:101C600000005098589A80E28A95F1F7489B0AC084
:101C7000509A589AE881F98181E08083789481E0D4
:101C800090E02CC06D81662381F08E819F810E943F
:101C90005E0D81110AC0509A589AE881F98182E05C
:101CA0008083789482E090E019C00E942A0D80E23F
:101CB0008A95F1F75898509A80E18A95F1F76A81F0
:101CC000662321F08B819C810E94B90D0E94320D08
:101CD000E881F9811082789480E090E0DF91CF91E3
:101CE00008959093AA018093A9010895E091A90114
:101CF000F091AA01309721F00190F081E02D099434
:101D000080E00895E091A901F091AA01309721F0B7
:101D10000280F381E02D09940895E091A901F091EA
:101D2000AA01309739F022E0DC012C930480F58180
:101D3000E02D099408952091A7013091A80128175A
:101D4000390771F09093A8018093A701E091A90150
:101D5000F091AA01309721F00680F781E02D0994D7
:101D600008952091A5013091A6012817390771F037
:101D70009093A6018093A501E091A901F091AA0199
:101D8000309721F00084F185E02D0994089585B7FE
:101D9000806885BF85B7806885BF08950C94E0088A
:101DA00008950C94D00E0C94D00E0C94D30E0C9479
:101DB000D00E0C94D70E0C94D00E0E94C70E0E9429
:101DC000DB0E0C94D90E0E94781B0E946A070E94B9
:101DD000D31B0E945B090C94D50EAF92BF92CF9299
:101DE000DF92EF92FF920F931F93CF93DF93CDB7C4
:101DF000DEB72A970FB6F894DEBF0FBECDBF0E94A4
:101E0000D10E0E94D00E0E941C080E94CE0E81119D
:101E100011C08FEF89838A831B820E94811B81609E
:101E2000782F9D838C8349815A816B818D810E949B
:101E30008B0F40C08CEAA82E81E0B82E00E010E0A5
:101E4000C02E802F0E943E07E82EF501D1905F0141
:101E5000D82631F40F5F1F4F0830110589F7D9CF0D
:101E60008091200281FD0E94440780E0FF24F394CA
:101E70009D2D9F21D1F08E83CF82EF2081E009F448
:101E800080E088870E94811B8160782F9A878987EC
:101E90004E815F8168858A850E948B0FF801E45529
:101EA000FE4F8081F826F08205C08F5FFF0C8630E0
:101EB000F9F6D0CF0E94D30A0E94821D0E94760EAE
:101EC0009091AB018917B1F00E94760E8093AB011F
:101ED0002A960FB6F894DEBF0FBECDBFDF91CF912B
:101EE0001F910F91FF90EF90DF90CF90BF90AF9038
:101EF0000C9427052A960FB6F894DEBF0FBECDBF0F
:101F0000DF91CF911F910F91FF90EF90DF90CF90D5
:101F1000BF90AF900895CF93DF93CDB7DEB72B97E7
:101F20000FB6F894DEBF0FBECDBF4F8358876987C9
:101F30007A878B87DE01119686E0FD0111928A95E2
:101F4000E9F785E0FE01379601900D928A95E1F759
:101F500049815A816B817C818D819E810E943016DE
:101F60002B960FB6F894DEBF0FBECDBFDF91CF9199
:101F70000895FC01808191810E9406190895CF93F4
:101F8000882309F4A4C0C82F8238C1F40E94760EB9
:101F900081FD9DC069E380911701909118010E9415
:101FA000E81A0E9493192FEF81EE94E021508040AF
:101FB0009040E1F700C0000069E319C0833801F5E3
:101FC0000E94760E80FD83C063E580911701909199
:101FD00018010E94E81A0E9493192FEF81EE94E0F5
:101FE000215080409040E1F700C0000063E58091FF
:101FF0001701909118010E94EA1ACF910C9493193D
:102000008438C1F40E94760E82FD61C067E480913D
:102010001701909118010E94E81A0E9493192FEF5E
:1020200081EE94E0215080409040E1F700C0000034
:1020300067E4DDCF8CEF8C0F813AD0F46C2F809168
:102040001701909118010E94B21A882349F06C2F51
:1020500080911701909118010E94EA1A0E94931929
:102060006C2F80911701909118010E94E81AC5CF3A
:1020700080E28C0F883048F4C77081E001C0880F7F
:10208000CA95EAF70E944819B8CFEBE5EC0FE330A8
:1020900040F4F0E0EF56FE4F808190E0CF910C9439
:1020A0009B0EE8E5EC0FE73150F4F0E0EE0FFF1F78
:1020B000ED59FE4F80819181CF910C94B10EC03FBC
:1020C00030F08C2F0E94771CCF910C94641DCF911F
:1020D0000895882309F464C0823879F40E94760E4A
:1020E00081FF5EC069E380911701909118010E9401
:1020F000E81A0E94931969E310C08338B1F40E9472
:10210000760E80FF4DC063E5809117019091180114
:102110000E94E81A0E94931963E58091170190913B
:1021200018010E94EA1A0C949319843879F40E94D9
:10213000760E82FF35C067E48091170190911801F7
:102140000E94E81A0E94931967E4E7CF9CEF980F6A
:10215000913A10F4682FE1CF90E2980F983050F444
:10216000877091E001C0990F8A95EAF7892F0E9444
:102170004E19D9CF9BE5980F933020F480E090E082
:102180000C949B0E98E5980F973120F480E090E036
:102190000C94B10E803F20F00E94DF1C0C94641D53
:1021A0000895CF93C82F0E94BF0FC93349F42FEF72
:1021B00087EE93E0215080409040E1F700C000009E
:1021C0008C2FCF910C946910882321F00E9448191C
:1021D0000C9493190895882321F00E944E190C94B1
:1021E00093190895CF92DF92EF92FF920F931F936E
:1021F000CF93DF937C01062FC72FFC011581129529
:102200001F70D281D1110E9465190E943E19882346
:1022100099F0DD2389F08C2F807F803421F080E2DB
:10222000800F883048F082E00E94DD190E943E193C
:1022300091E0D82ED92601C0D12CCC2EC2948FE0AB
:10224000C8228C2D90E0FC01EA5AFF4F0C94BA256D
:102250008C2F807FCF70882311F0C295C07FDD2343
:1022600099F0CC2309F48DC180E2800F883010F002
:10227000011104C08C2F0E94481903C08C2F0E94AA
:1022800058190E9493197DC1802F0E946910CC2398
:1022900009F49CC180E2800F883010F0011104C065
:1022A0008C2F0E944E1903C08C2F0E945E190E9431
:1022B00093198CC18C2F807FCF70803211F0C29522
:1022C000C07F002319F00130C9F022C0DD2371F076
:1022D000112341F0113031F40E9478198C2B0E94A7
:1022E000801974C10E9478198C2B1DC0112319F01C
:1022F000113009F46BC10E94891925C0DD2321F03A
:10230000163008F063C10EC0153008F05FC11BC065
:10231000DD2361F0112331F0F701858180FF31C1A8
:102320008F7085838C2F0E94E41050C1112359F0C7
:10233000093309F037C1FFEF27EE83E0F150204069
:102340008040E1F72DC18C2F0E94EB103FC18C2FF4
:1023500086958695837019F0813061F037C1DD2351
:1023600021F0802F9C2F937002C080E090E00E94AB
:102370009B0E34C1DD2321F0802F9C2F937002C06F
:1023800080E090E00E94B10E29C1802FDD2319F07A
:102390000E94771C02C00E94DF1C0E94641D1EC1A7
:1023A0008C2F837009F045C0D11114C1402F429584
:1023B00046954770440F440F602F6F70862F90E052
:1023C000A0E0B0E0042E04C0880F991FAA1FBB1F15
:1023D0000A94D2F704FF10C00FE010E020E030E0D4
:1023E00004C0000F111F221F331F4A95D2F700951A
:1023F00010952095309503C000E010E09801C69537
:10240000C695C370BC01CD01602B712B822B932B21
:10241000C23049F058F4C13019F00E948117DAC077
:102420000E946F17D7C00E949317D4C00E946D17E7
:10243000D1C0DD2319F08C2F817001C086958823CF
:1024400009F4C8C0402F429546954770440F440F89
:10245000602F6F70862F90E0A0E0B0E0042E04C0E3
:10246000880F991FAA1FBB1F0A94D2F704FF10C040
:102470000FE010E020E030E004C0000F111F221F29
:10248000331F4A95D2F7009510952095309503C0DB
:1024900000E010E09801C695C695C370BC01CD015F
:1024A000602B712B822B932BC23049F058F4C13032
:1024B00019F00E9446188EC00E9434188BC00E94EA
:1024C000581888C00E94A71785C0CF70DD2339F047
:1024D0008C2F0E94CD17802F0E94E4107BC0802F8C
:1024E0000E94EB108C2F0E94EE1774C0023F01F186
:1024F00028F4003F41F0013FA1F03FC0033FF9F055
:10250000043F39F13AC0DD2341F0153008F05EC0D8
:102510008C2F8F710E94131859C0163008F056C0C6
:10252000F7CFDD2339F08C2F8F710E94CD174EC06D
:10253000DD23C9F38C2F8F710E94EE1747C0DD2376
:1025400029F08C2F8F710E94B81740C00E94B317DA
:102550003DC0DD2349F0CF718C2F0E94CD1763E081
:102560008C2F0E94C81932C081E00E94DD19123000
:1025700068F182E00E94DD1929C0DD2331F01123CA
:1025800091F2802F0E94BF0F21C0112399F20933CD
:1025900049F49FEFE7EEF3E09150E040F040E1F7BF
:1025A00000C00000802F0E94691010C04C2F4F7097
:1025B000602FC7010E9430050E94DE160FC04C2F0D
:1025C0004F70602FC7010E94330508C088EF8C0D43
:1025D000843020F40E94760E0E942705DD20C9F089
:1025E0000E943A1980FD15C0F70112820E94341929
:1025F0000E94CD17C7010E942A130E943419DF914F
:10260000CF911F910F91FF90EF90DF90CF900C949E
:10261000EE17DF91CF911F910F91FF90EF90DF9018
:10262000CF9008950F931F93CF93DF93EC016881B0
:1026300079818A810E9411198C010E946A180E9476
:102640005B17B801CE010E94F210DF91CF911F916C
:102650000F910895CF93DF93EC01988189812B81AD
:102660003C81232B31F08F3F31F481E09F3F19F4FF
:1026700003C081E001C080E080FD19C0CE010E944E
:10268000DD0481110CC00E943E19882381F08A81EB
:10269000882369F082E0DF91CF910C94DD19CE019F
:1026A0000E941213CE01DF91CF910C94B604DF91FA
:1026B000CF9108950E9465190E9475190E9493197F
:1026C0000E94951E0E94641D80E090E00E949B0E77
:1026D00080E090E00C94B10E809117019091180168
:1026E0000E94EC1A0C945A130E9455190C946C1306
:1026F000E92FE295EF704E2F50E0FA013297EE305D
:10270000F105B0F4EA59FF4F0C94BA25803F91F0DF
:1027100018F4883E68F40EC0843F51F40BC0883E24
:1027200048F0813F29F406C093FB882780F908957B
:1027300080E0089581E008950E9406190E947813B0
:102740000895CF93DF9300D000D01F92CDB7DEB7AE
:102750000F900F900F900F900F90DF91CF910895F1
:10276000CF93DF9300D000D000D0CDB7DEB7269650
:102770000FB6F894DEBF0FBECDBFDF91CF910895A5
:102780001F93CF93DF93C091B50116E08091B601FE
:10279000C81799F0D0E01C9FF0011D9FF00D112487
:1027A000E954FE4F4081518162817381848195811A
:1027B0000E94B0132196C770E9CFDF91CF911F918E
:1027C00008954091E7015091E8016091E90170910D
:1027D000EA018091EB019091EC010C94B0130F93FE
:1027E0001F93CF93DF938091EC0182958F7009F056
:1027F0005DC08091E901882309F458C08091B5013A
:102800001091B6016091E7017091E801C091EA0171
:10281000D091EB0191E06F3F09F090E0292F06E0A5
:10282000811709F443C0209721F07F3F21F030E069
:1028300003C031E001C0322F90E030FD34C0089F6A
:10284000F001099FF00D1124DF01A954BE4F11962C
:102850003C911197371327C03C91361324C0129630
:102860003C91129731111FC013964D915C911497B2
:102870004C1B5D0B483C5105B0F48091EC018F700E
:1028800080618093EC01E454FE4F80818F70806101
:10289000808387EE91E00E942A13DF91CF911F91F0
:1028A0000F910C94C01301968770BACFDF91CF912E
:1028B0001F910F9108959F92AF92BF92CF92DF9296
:1028C000EF92FF920F931F93CF93DF93CDB7DEB7B5
:1028D00061970FB6F894DEBF0FBECDBF8C0185E0C7
:1028E000F801DE011D9601900D928A95E1F7F8013D
:1028F00040815181E2809091E7016091E80120914F
:10290000EA013091EB012115310531F06F3F31F4CF
:1029100081E09F3F19F403C081E001C080E0F82FFF
:10292000F1709F2E80FD46C1F801A380B48087EE30
:10293000C82E81E0D82EF090E901F501E21BF30BDF
:10294000FF2009F4DFC08091EC01E83CF10508F0BC
:102950009BC0282F207F09F052C0561313C0491383
:1029600011C0FE2CE1100EC08F7080618093EC01CD
:102970000E94E113C6010E942A138091EC01F80124
:10298000858358C1AB2831F05F3F31F481E04F3F80
:1029900019F403C081E001C080E080FD03C081E044
:1029A0008E2502C080E090E0F82FF170FF2E80FFAE
:1029B0001CC08091B5012091B60136E0821709F460
:1029C00017C190E0389FF001399FF00D1124E954B0
:1029D000FE4F6181561306C06081461303C06281B9
:1029E000E61203C001968770E9CFFE2CEE2009F4B1
:1029F00021C18091EC0181608093EC015AC0561393
:102A000006C0491304C0E11002C0F8019FC04D8701
:102A10005E878D859E850E949C13882379F1EE2028
:102A200069F12091EC01822F82958F7090E00297DE
:102A300074F08091E7019091E80198878F8319865F
:102A4000BB86AA862C87CE0107960E942A1386E0B1
:102A5000F801A7EEB1E001900D928A95E1F70E948E
:102A6000EF130E94E1130DC0561729F14D875E87C1
:102A70008D859E850E949C1381112CC0C8010E94E7
:102A80002A13FF24F394D6C0282F207F69F77A2DCC
:102A9000B98AA88A6E2D89890E94A11387EE91E0D8
:102AA0000E942A1386E0F60111928A95E9F70E94A6
:102AB000E113F12CBFC04913D9CFE110D7CFF801F2
:102AC0008583C8010E942A1386E0F60111928A9537
:102AD000E9F7B0C0EE2091F22091EC01822F8295AF
:102AE0008F7090E002970CF4B2CF8091E701909143
:102AF000E8019A8389831B82BD82AC822E83CE013A
:102B00000196A3CFE83CF10508F047C0FE2CEE206B
:102B100009F4B4CF561330C049132EC02091EC01F4
:102B200020FD21C0822F82958F70482F50E04115E3
:102B30005105C9F0F80125834F30510541F08F5FF1
:102B4000982F9295907F822F8F70892B8583C80153
:102B50000E942A1386E0F801A7EEB1E001900D92E1
:102B60008A95E1F742C086E0F801A7EEB1E0019056
:102B70000D928A95E1F75EC04D875E878D859E85B3
:102B80000E949C13811163CF8091EC01816080933E
:102B9000EC01C8010E942A134DC07A2DB98AA88A77
:102BA0006E2D89890E94A11386E0F60111928A9503
:102BB000E9F71BC0EE2009F461CF4D875E878D8554
:102BC0009E850E949C13F82E882309F457CF86E037
:102BD000F801A7EEB1E001900D928A95E1F787EE3A
:102BE00091E00E94B90F0E94EF130E94E11322C0EE
:102BF0004D875E878D859E850E940619292F229517
:102C00002F70223028F49F7039F0811105C00BC05D
:102C1000243028F49F7049F4805E883020F0C80189
:102C20000E942A139F2CF92C05C0F8019581907FF2
:102C300099F7F9CF8F2D61960FB6F894DEBF0FBECE
:102C4000CDBFDF91CF911F910F91FF90EF90DF905B
:102C5000CF90BF90AF909F90089588EC90E008953A
:102C60001F93CF93DF93CDB7DEB72C970FB6F894B1
:102C7000DEBF0FBECDBF4F83588769877A878B87AA
:102C80009C87CE0107960E945B148823D1F09F8118
:102C900088852A853B85232B31F08F3F31F481E0F5
:102CA0009F3F19F403C081E001C080E080FD47C070
:102CB0004F81588569857A858B859C850E94B013E4
:102CC0003EC086E0FE013796DE01119601900D921E
:102CD0008A95E1F7FF81E8856A857B856115710535
:102CE00031F0EF3F31F481E0FF3F19F403C081E0A0
:102CF00001C080E080FD23C02091B60130E0C90111
:102D00000196877099274091B50150E08417950787
:102D1000F1F1F983EA837D836C8396E0929FD00181
:102D2000939FB00D1124A954BE4FFE01319601901E
:102D30000D929A95E1F78093B6010E94C01316E0B8
:102D40008091B5019091B601891771F1189FC0016A
:102D5000112489549E4F0E945B14882329F1E0912D
:102D6000B5011E9FF0011124E954FE4F40815181AD
:102D700062817381848195810E94B0138091B50135
:102D800090E00196877099278093B501D9CF0E9472
:102D900074131092B6011092B501E7EEF1E086E0EF
:102DA000DF011D928A95E9F72C960FB6F894DEBFE5
:102DB0000FBECDBFDF91CF911F910895EF92FF928B
:102DC0000F931F93CF93DF938C01892B09F46CC071
:102DD000F12CEE24E394E8012196F80184918437E4
:102DE00040F4843008F051C0813081F0823019F114
:102DF0005BC0853709F444C0A8F19CE7980F903771
:102E000008F052C08F770E94691041C00E5F1F4FBB
:102E1000FE01849190E2980F983050F48770FE2D57
:102E200001C0FF0F8A95EAF78F2F0E94681914C01E
:102E30000E94BF0F2DC00E5F1F4FFE01849190E2D4
:102E4000980F983060F48770FE2D01C0FF0F8A95AF
:102E5000EAF78F2F0E946E190E94931919C00E94E1
:102E6000691016C00E5F1F4FFE01C491CC2381F084
:102E70008FE99FE00197F1F700C00000C150F6CF45
:102E80000E5F1F4FFE01F49003C00E94BF0F8E0122
:102E90008F2D882309F49FCFEFE9FFE03197F1F7F9
:102EA00000C000008150F5CFDF91CF911F910F91AD
:102EB000FF90EF900895089508950C945C170C947A
:102EC0005D170E945F1760930F027093100280934A
:102ED0001102909312020C945A130C9461170F93E1
:102EE0001F9300910F021091100220911102309156
:102EF0001202602B712B822B932B1F910F910C943C
:102F000061170F931F9300910F02109110022091EF
:102F100011023091120260237123822393231F91A7
:102F20000F910C9461170F931F9300910F02109152
:102F3000100220911102309112026027712782271E
:102F400093271F910F910C9461170C945C170E94AA
:102F5000A51760930B0270930C0280930D0290935F
:102F60000E020C945A1360E070E0CB010C94A7178A
:102F70000F931F9341E050E060E070E08A019B01F5
:102F800004C0000F111F221F331F8A95D2F7C901F9
:102F9000B8011F910F910C94A7170F931F9341E055
:102FA00050E060E070E004C0440F551F661F771FBB
:102FB0008A95D2F780910B0290910C02A0910D029C
:102FC000B0910E028A019B01082B192B2A2B3B2B57
:102FD000C901B8011F910F910C94A7170F931F936C
:102FE00041E050E060E070E004C0440F551F661FF0
:102FF000771F8A95D2F7409550956095709580918E
:103000000B0290910C02A0910D02B0910E028A0168
:103010009B01082319232A233B23C901B8011F91CF
:103020000F910C94A7170F931F9341E050E060E0BD
:1030300070E004C0440F551F661F771F8A95D2F7B2
:1030400080910B0290910C02A0910D02B0910E02A2
:103050008A019B01082719272A273B27C901B801A4
:103060001F910F910C94A7170F931F9300910B02C0
:1030700010910C0220910D0230910E02602B712BE9
:10308000822B932B1F910F910C94A7170F931F93D3
:1030900000910B0210910C0220910D0230910E0252
:1030A00060237123822393231F910F910C94A71700
:1030B0000F931F9300910B0210910C0220910D02AF
:1030C00030910E0260277127822793271F910F915D
:1030D0000C94A7170895292F220F920F990F890F8B
:1030E000E82FE695E695E695877051E001C0550F0B
:1030F0008A95EAF785E0E89FF0011124E351FE4F3D
:1031000020E030E070E04081CB01022E02C09695B5
:1031100087950A94E2F78170819584278523842717
:1031200081932F5F3F4F2530310569F70895292F8F
:10313000220F920F990F890F682F669566956695F5
:10314000982F977085E0689FB001112440E050E00F
:1031500080E0FB01E40FF51FE351FE4F208130E0DA
:10316000092E02C0369527950A94E2F7217033277D
:10317000042E01C0220F0A94EAF7822B4F5F5F4FA3
:103180004530510531F70895BF92CF92DF92EF920B
:10319000FF920F931F93CF93DF938C01C0900B028C
:1031A000D0900C02E0900D02F0900E0280910F0280
:1031B00090911002A0911102B0911202C82AD92A4E
:1031C000EA2AFB2ACFE1D0E0D701C6010C2E04C0C9
:1031D000B695A795979587950A94D2F780FD04C078
:1031E000219790F7B12C07C0BC2EB8018C2F0E94FC
:1031F0004F050197A9F38B2DDF91CF911F910F916F
:10320000FF90EF90DF90CF90BF900895CF93DF9322
:10321000EC010E94C418BE010E944F05DF91CF91BE
:1032200008951F93CF93DF93EB019091B4019923FD
:1032300021F0CB010E94061913C0882349F0CB016D
:103240000E94C418182F682FCE010E946B1804C06A
:10325000CB010E949718182FBE01812F0E944F05A5
:10326000DF91CF911F9108958091130285958595E7
:1032700085950895809113028770089590911302A7
:10328000977081E009F480E0089580911F0208950D
:1032900090911F02892B80931F0208958095909131
:1032A0001F02892380931F02089510921F02089520
:1032B00090911E02892B80931E0208958095909113
:1032C0001E02892380931E02089510921E02089503
:1032D00090911D02892B80931D02089580959091F5
:1032E0001D02892380931D02089510921D020895E6
:1032F00080911402089508950C947B190C947C1904
:1033000090911402981721F0809314020C947E1966
:10331000089580911402882329F01092140280E00D
:103320000C947E190895E0911701F0911801809195
:103330001F028083E0911701F09118019081809124
:103340001E02892B8083E0911701F0911801908172
:1033500080911D02892B808380911402882381F043
:10336000E0911701F09118019081892B8083809161
:103370001701909118010E94A61A81110E948919C3
:1033800080911701909118010C94820E0C947B1976
:1033900098E0899F90011124262B209313020E940C
:1033A000CD17809113028595859585950C94C61946
:1033B0001092130280E00C94C6192091130280959C
:1033C000822380931302982F977079F430E0482F6E
:1033D000082E000C550B2417350739F08595859577
:1033E00085950E94EE170C94D819089580E090E01E
:1033F0000E94E22521E08C3E9E4F09F020E0822FC2
:10340000089582E090E00C94DA2583E090E00C943B
:10341000DA25CF9384E090E00E94DA25C82F81E27C
:1034200090E00E94DA252C2F30E0A901582BCA0128
:10343000CF910895CF93C92F682F84E090E00E9428
:10344000E8256C2F81E290E0CF910C94E82586E08E
:1034500090E00C94DA25682F86E090E00C94E82543
:10346000AB01BC018FE090E00C94FA25AB01BC01EC
:1034700083E190E00C94FA2560E070E0CB010C94BD
:10348000361A6CEE7EEF80E090E00E94062660E047
:1034900082E090E00E94E82560E083E090E00E94F6
:1034A000E82510920F021092100210921102109251
:1034B000120260E084E090E00E94E82560E081E292
:1034C00090E00E94E82560E085E090E00E94E82519
:1034D00060E086E090E00E94E8256FEF87E090E0F2
:1034E0000E94E82540E050E0BA0188E090E00E94A8
:1034F000FA2560E08DE090E00E94E82540E050E091
:10350000BA0188E190E00E94FA2560E087E190E04E
:103510000E94E82540E050E0BA018CE190E00E9472
:10352000FA2560E080E290E00E94E82540E050E06B
:10353000BA0188E190E00E94FA250C9465040C948D
:10354000411A682F8EE090E00C94E825FC01329639
:1035500097E080E0915029F021912223D9F38F5FE9
:10356000F9CF0895662349F0FC013296089621911F
:10357000621729F0E817F907D1F780E0089581E094
:1035800008959C01FC0132969FEF80E0419146171F
:1035900089F09F3F19F4411101C0982F8F5F863049
:1035A000A9F79F3F39F0F901E90FF11D97FDFA9551
:1035B0006283089508959C012A5F3F4FFC01428178
:1035C000461301C01282019682179307B9F7089536
:1035D0000C94C11A0C94DB1A029626E0FC0111929D
:1035E0002A95E9F7089508950C94F31A0C94F31AA8
:1035F000CF930E94F61A0E941C080E94F41AC0E0A1
:103600008C2F0E943E07811104C0CF5FC830C1F7E4
:1036100001C081E0CF9108950C94F31A0C940C1B17
:103620000E940E1B80915602843061F1109221029B
:1036300020E488E190E00FB6F894A89580936000AC
:103640000FBE2093600080E00E946A0A80E00E9422
:1036500027050E940E1B83B7817F846083BF83B7D9
:10366000816083BF7894889583B78E7F83BF0FB6C0
:10367000F894A89580916000886180936000109212
:1036800060000FBE08950C94F31A0E9474130E94F8
:103690005B090E94760E0E9427050C94431B1F9223
:1036A0000F920FB60F9211248F939F93AF93BF93F6
:1036B00080912102811113C080914C0290914D02A2
:1036C000A0914E02B0914F024196A11DB11D809371
:1036D0004C0290934D02A0934E02B0934F02BF91C3
:1036E000AF919F918F910F900FBE0F901F901895E3
:1036F00082E084BD93E095BD9AEF97BD80936E0004
:1037000008952FB7F89480914C0290914D02A091AA
:103710004E02B0914F022FBF08959C014FB7F8940D
:1037200080914C0290914D02A0914E02B0914F02B7
:103730004FBF821B930B089578941F920F920FB680
:103740000F9211248F939F93AF93BF9380914C025C
:1037500090914D02A0914E02B0914F020196A11D91
:10376000B11D80934C0290934D02A0934E02B093F2
:103770004F02BF91AF919F918F910F900FBE0F900D
:103780001F90189587E797E79093010880930008AA
:103790009AE088E10FB6F894A895809360000FBE78
:1037A00090936000FFCF0E94F619811102C00E9421
:1037B0009F1A0E94011A809320020E94091A909376
:1037C0005102809350020E94051A682F70E080E039
:1037D00090E00E946D1760910B0270910C02809135
:1037E0000D0290910E020C94A5178091280280FF83
:1037F0000BC060911E0185E0689FB0011124759592
:103800006795759567952BC081FF09C060911E0172
:1038100085E0689FB00111247595679520C082FFEF
:1038200007C060911E0185E0689FB001112417C098
:10383000909127029923D1F060911D01961788F786
:1038400020911E0185E0289F90011124929FA001E4
:10385000939F500D112470E0CA010E9484256038A6
:10386000710540F46115710519F406C065E070E05A
:10387000862F08958FE7089581E0089580912802AA
:1038800080FF08C060911A0170E075956795759585
:10389000679521C081FF06C060911A0170E075959F
:1038A000679519C082FF04C060911A0170E010C0D2
:1038B00090912602992399F0609119019617A0F72B
:1038C00080911A01899FC001112470E00E94842513
:1038D0006038710540F46115710519F406C061E0A6
:1038E00070E0862F08958FE7089581E00895803F66
:1038F00021F40E94F51B819504C0813F29F40E94A8
:10390000F51B80932C020895823F21F40E94F51B41
:10391000819504C0833F29F40E94F51B80932B02FC
:103920000895893F19F40E943E1C05C08A3F31F476
:103930000E943E1C819580932D0208958B3F21F4B7
:103940000E943E1C819504C08C3F29F40E943E1CBD
:1039500080932E020895843F21F480912A02816091
:1039600017C0853F21F480912A02826011C0863FF2
:1039700021F480912A0284600BC0873F21F480915A
:103980002A02886005C0883F31F480912A02806154
:1039900080932A0208958D3F21F48091280281604E
:1039A0000BC08E3F21F480912802826005C08F3FBA
:1039B00029F4809128028460809328020895803F32
:1039C00039F480912C0287FF6AC010922C0267C0E4
:1039D000813F29F480912C021816BCF360C09091AD
:1039E0002B02823F29F497FF5AC010922B0257C036
:1039F000833F19F41916CCF352C090912D02893FE0
:103A000031F419160CF04BC010922D0248C08A3FB9
:103A100019F497FF44C0F8CF8B3F39F480912E0200
:103A200087FF3DC010922E023AC08C3F29F480914E
:103A30002E021816BCF333C0843F21F480912A0271
:103A40008E7F17C0853F21F480912A028D7F11C09F
:103A5000863F21F480912A028B7F0BC0873F21F49F
:103A600080912A02877F05C0883F31F480912A0225
:103A70008F7E80932A0213C08D3F21F4809128020B
:103A80008E7F0BC08E3F21F4809128028D7F05C070
:103A90008F3F29F4809128028B7F809328028091A8
:103AA0002B02811106C080912C02811102C010925C
:103AB000270280912D02811106C080912E02811172
:103AC00002C01092260208950E94811B20912B02B1
:103AD000211104C020912C02222321F09093250271
:103AE0008093240220912D02211104C020912E02E6
:103AF000222321F0909323028093220289E292E014
:103B00000C948D0EEF92FF920F931F93CF93DF9340
:103B100000D000D000D0CDB7DEB786E0E9E2F2E019
:103B2000DE01119601900D928A95E1F7E0902B024B
:103B3000F0902C0200912D0210912E0210922B0277
:103B400010922C0210922D0210922E02E11003C04E
:103B5000FF2009F45DC080912402909125020E940B
:103B60008D1BAC0190912702992339F020911F0100
:103B700030E02417350758F04BC0209120018AE02F
:103B8000289F900111242417350718F041C09F3F4A
:103B900019F09F5F90932702EE2061F00E94F51BC1
:103BA0001E1414F09FEF01C091E0989F902D1124F6
:103BB00090932B02FF2061F00E94F51B1F1414F05C
:103BC0009FEF01C091E0989F902D112490932C02BB
:103BD00030912B023323E1F020912C022223C1F0FB
:103BE00045EB3403C0011124992319F090932B0263
:103BF00003C081E080932B0235EB2303C001112425
:103C0000992319F090932C0203C081E080932C0239
:103C1000011103C0112309F45DC08091220290912B
:103C200023020E948D1BAC0190912602992339F04A
:103C300020911B0130E02417350758F04BC020912C
:103C40001C018AE0289F900111242417350718F0E1
:103C500041C09F3F19F09F5F90932602002361F0BF
:103C60000E943E1C101614F09FEF01C091E0989F37
:103C7000902D112490932D02112361F00E943E1C7F
:103C8000111614F09FEF01C091E0989F902D112420
:103C900090932E0230912D023323E1F020912E02D9
:103CA0002223C1F045EB3403C0011124992319F0FC
:103CB00090932D0203C081E080932D0235EB230306
:103CC000C0011124992319F090932E0203C081E0C2
:103CD00080932E0280912B0281110BC080912C02C7
:103CE000811107C080912D02811103C080912E02A5
:103CF00081110E94641DEB82FC820D831E8386E08D
:103D0000FE013196A9E2B2E001900D928A95E1F7A9
:103D100026960FB6F894DEBF0FBECDBFDF91CF91D0
:103D20001F910F91FF90EF900895E9E2F2E086E095
:103D3000DF011D928A95E9F7109227021092260260
:103D4000109228020895809137020895CF93DF934F
:103D500000D01F92CDB7DEB790915602943019F57E
:103D600089837B836A8382E08093E9008FEF90915F
:103D7000E800815095FD06C095ED9A95F1F7000099
:103D80008111F5CF8091E80085FF0DC040E050E043
:103D900063E070E0CE0101960E94C2208091E800AD
:103DA0008E778093E8000F900F900F90DF91CF9166
:103DB0000895BC0184E00C94A61EBC0183E00C9421
:103DC000A61E22E02093E9002FEF3091E800215059
:103DD00035FD06C035ED3A95F1F700002111F5CF1C
:103DE0002091E80025FF0BC040E050E066E070E065
:103DF0000E94C2208091E8008E778093E8000895A9
:103E0000CF93DF9321E02093E9002FEF3091E8007A
:103E1000215035FD06C035ED3A95F1F7000021112E
:103E2000F5CF2091E80025FF14C0EC0140E050E000
:103E300068E070E00E94C2208091E8008E77809355
:103E4000E80088E0FE01AFE2B2E001900D928A95B1
:103E5000E1F7DF91CF91089580915502811109C05A
:103E60000E9453220E94B0228091E20084608093DD
:103E7000E2000895109255020895089508950C9453
:103E8000451B42E061EC81E00E94CC2142E261EC02
:103E900082E00C94CC2180915802833009F460C0F8
:103EA00030F4813071F0823009F499C008958A307D
:103EB00009F485C08B3009F46BC0893009F0A7C0C4
:103EC00020C080915702813A09F0A1C08091E8009A
:103ED000877F8093E80080915B0290915C02892B40
:103EE00021F468E08FE292E003C060E080E090E0BF
:103EF00070E00E940D218091E8008B778093E800AC
:103F0000089580915702813209F081C080915B024F
:103F100090915C02029708F07AC08091E800877F58
:103F20008093E8008091E80082FD05C080915602F0
:103F30008111F8CF6CC02091F3008091F20090E0E5
:103F4000922B029729F48091F1008B7F813021F42C
:103F50008091F100809337028091E8008B7753C005
:103F600080915702813A09F052C080915B02909192
:103F70005C02892B09F04BC08091E800877F809319
:103F8000E8008091E80080FFFCCF80912B0136C0D3
:103F9000809157028132D9F580915B0290915C0249
:103FA000892BA9F58091E800877F8093E8000E9423
:103FB00001228091590280932B010C9474138091FB
:103FC0005702813221F58091E800877F8093E800D5
:103FD0000E94012280915A028093380208958091B4
:103FE0005702813AA1F48091E800877F8093E8002E
:103FF0008091E80080FFFCCF809138028093F1002F
:104000008091E8008E778093E8000C940122089557
:1040100084B7877F84BF0FB6F894A895809160001D
:10402000886180936000109260000FBE90E080E88D
:104030000FB6F89480936100909361000FBE0E94C8
:10404000DD0E0E9453220E94B0228091E200846023
:104050008093E20078940E9445250E94E30E81E25D
:1040600091E00E94710E80915602853069F40E94A1
:10407000101B809154028823B1F30E94F81A882300
:1040800091F30E94AC20EFCF0E94ED0E0E94D10E62
:104090000E94D00EE8CF0C944D20292F33272330D7
:1040A0003105C9F060F42130310581F0223031054D
:1040B00009F04AC08BE390E02AE237E049C02132A0
:1040C000310511F12232310579F13EC082E190E0F3
:1040D00025E637E03DC099278130910561F040F039
:1040E0008230910559F0039779F5ECEFF6E008C0BE
:1040F000E6E2F7E005C0E6E1F7E002C0E2E0F7E063
:10410000849190E09F0124C06115710541F06130F8
:104110007105D1F489E090E025E537E019C089E028
:1041200090E02CE337E014C06115710541F0613077
:10413000710551F481E890E027E737E009C080E499
:1041400090E028EF37E004C080E090E020E030E02D
:10415000FA0131832083089580E189BD82E189BD20
:1041600009B400FEFDCF8091D8008F7D8093D800E8
:104170008091E00082608093E0008091E00081FD0A
:10418000FCCF0895CF92DF92EF92FF920F931F938F
:10419000CF93DF93EC018B017A010E9420228111E1
:1041A00033C0E114F10439F0F70180819181081BDB
:1041B000190BC80FD91FC12CD12C0115110519F1EC
:1041C0008091E80085FD16C08091E8008E7780938D
:1041D000E800E114F10449F0F70180819181C80EF3
:1041E000D91ED182C08285E00FC00E942022882380
:1041F00021F30AC089918093F10001501109FFEF6A
:10420000CF1ADF0ADACF80E0DF91CF911F910F91B3
:10421000FF90EF90DF90CF90089520915D02309154
:104220005E022617370748F06115710539F42091B1
:10423000E8002E772093E80001C0B901FC0120E0DE
:104240006115710579F1809156028823F1F185306D
:10425000F1F18091E80083FD3CC08091E80082FD8F
:104260002EC08091E80080FFEBCF2091F300809179
:10427000F20090E0922B6115710551F088309105A4
:1042800038F421912093F100615071090196F3CF28
:1042900021E0089709F020E08091E8008E77809374
:1042A000E800CECF2111CFCF0AC0809156028823DB
:1042B00061F0853061F08091E80083FD0AC0809153
:1042C000E80082FFF2CF80E0089582E0089583E065
:1042D000089581E0089520915D0230915E022617D5
:1042E000370748F06115710539F42091E8002E7701
:1042F0002093E80001C0B901FC0120E061157105BF
:1043000091F180915602882309F440C0853009F468
:104310003FC08091E80083FD3DC08091E80082FDB0
:104320002FC08091E80080FFE9CF2091F3008091B9
:10433000F20090E0922B6115710559F088309105DB
:1043400040F424912093F100319661507109019657
:10435000F2CF21E0089709F020E08091E8008E7705
:104360008093E800CBCF2111CCCF0AC080915602B8
:10437000882361F0853061F08091E80083FD0AC0F8
:104380008091E80082FFF2CF80E0089582E00895F6
:1043900083E0089581E00895982F973068F5909311
:1043A000E900981739F07091EC002091ED005091E0
:1043B000F00003C0242F762F50E021FD02C09F5F44
:1043C000ECCF3091EB003E7F3093EB003091ED006D
:1043D0003D7F3093ED003091EB0031603093EB0086
:1043E0007093EC002093ED005093F0002091EE00CC
:1043F00027FDE5CF80E008958F708093E90081E08C
:1044000008958091570287FF11C08091E80082FDD6
:1044100005C0809156028111F8CF11C08091E8004B
:104420008B770BC080915602882349F08091E80079
:1044300080FFF8CF8091E8008E778093E8000895A0
:104440002091E4003091E50095E64091EC00842F46
:10445000817040FF23C08091E80080FD1DC08091E5
:104460005602882399F0853099F08091EB0085FD04
:1044700011C04091E4005091E5002417350729F35D
:10448000915011F09A01E1CF84E0089582E00895FF
:1044900083E0089581E0089580E008954091E80068
:1044A00042FFDDCF08950E94C1220E94C922E0EEA2
:1044B000F0E0808181608083E8EDF0E080818F779B
:1044C000808319BCA7EDB0E08C918E7F8C938081A6
:1044D0008F7E80831092550208950F931F93CF9380
:1044E000DF930E94C1220E94C922C8EDD0E08881DA
:1044F0008F77888388818068888388818F7D88838F
:1045000019BC10925602109252021092540210924C
:10451000530200EE10E0F80180818B7F8083888158
:104520008160888342E060E080E00E94CC21E1EE7F
:10453000F0E080818E7F8083E2EEF0E08081816018
:104540008083808188608083F80180818E7F808372
:10455000888180618883DF91CF911F910F910895A9
:10456000E8EDF0E080818F7E8083E7EDF0E08081F0
:104570008160808384E082BF81E0809355020C9447
:104580006D22E8EDF0E080818E7F80831092E20062
:1045900008951092DA001092E10008951F920F9290
:1045A0000FB60F9211242F933F934F935F936F9306
:1045B0007F938F939F93AF93BF93EF93FF938091DC
:1045C000E10082FF0BC08091E20082FF07C0809172
:1045D000E1008B7F8093E1000E9444258091DA0006
:1045E00080FF1FC08091D80080FF1BC08091DA003F
:1045F0008E7F8093DA008091D90080FF0DC080E12A
:1046000089BD82E189BD09B400FEFDCF81E08093C0
:1046100056020E942C1F05C019BC109256020E941F
:104620003A1F8091E10080FF19C08091E20080FF75
:1046300015C08091E2008E7F8093E2008091E200BD
:1046400080618093E2008091D80080628093D800DE
:1046500019BC85E0809356020E943E1F8091E100C4
:1046600084FF30C08091E20084FF2CC080E189BDCE
:1046700082E189BD09B400FEFDCF8091D8008F7D15
:104680008093D8008091E1008F7E8093E10080913B
:10469000E2008F7E8093E2008091E200816080934F
:1046A000E20080915202882311F084E007C08091DB
:1046B000E30087FD02C081E001C083E080935602E1
:1046C0000E943F1F8091E10083FF29C08091E2009A
:1046D00083FF25C08091E100877F8093E10082E025
:1046E00080935602109252028091E1008E7F809357
:1046F000E1008091E2008E7F8093E2008091E200F1
:1047000080618093E20042E060E080E00E94CC2182
:104710008091F00088608093F0000E943D1FFF911F
:10472000EF91BF91AF919F918F917F916F915F9129
:104730004F913F912F910F900FBE0F901F901895A2
:104740001F920F920FB60F9211242F933F934F9306
:104750005F936F937F938F939F93AF93BF93CF9309
:10476000DF93EF93FF93C091E900CF708091EC004D
:10477000D82FD17080FDD0E81092E9008091F00030
:10478000877F8093F00078940E94E4231092E900E0
:104790008091F00088608093F000CD2BCF70C093A3
:1047A000E900FF91EF91DF91CF91BF91AF919F9180
:1047B0008F917F916F915F914F913F912F910F90CA
:1047C0000FBE0F901F9018951F93CF93DF93CDB717
:1047D000DEB7AA970FB6F894DEBF0FBECDBFE7E5F0
:1047E000F2E08091F100819322E0EF35F207C9F702
:1047F0000E944B1F8091E80083FF2EC180915702D9
:1048000090915802492F50E04A30510508F024C1D8
:10481000FA01EC58FF4F0C94BA25803821F0823809
:1048200009F01AC108C08091530290915402992353
:1048300089F082600FC080915B028F70873008F032
:104840000BC18093E9008091EB0085FB882780F9FC
:104850001092E9009091E800977F9093E800809390
:10486000F1001092F100D1C0282F2D7F09F0F4C083
:10487000882319F0823061F0EFC0809159028130B5
:1048800009F0EAC0933009F080E0809354022EC012
:104890008091590281112AC080915B028F702FEFA5
:1048A000280F263008F0D8C08093E9002091EB0053
:1048B00020FF1CC0933021F48091EB00806214C073
:1048C0009091EB0090619093EB0021E030E0A90122
:1048D00002C0440F551F8A95E2F74093EA001092F8
:1048E000EA008091EB0088608093EB001092E90071
:1048F0008091E800877F8093E8000E940122ACC08D
:104900008111AAC0109159021F778091E30080782D
:10491000812B8093E3008091E800877F8093E800FB
:104920000E9401228091E80080FFFCCF8091E3008B
:1049300080688093E300111102C082E001C083E02F
:104940008093560289C08058823008F085C08091DB
:10495000590290915A028C3D53E0950779F583E016
:104960008A838AE289834FB7F894DE01139620E0A8
:104970003EE051E2E32FF0E050935700E49120FF36
:1049800003C0E295EF703F5FEF708E2F90E0EA304A
:1049900010F0C79601C0C0968D939D932F5F243170
:1049A00049F74FBF8091E800877F8093E8006AE273
:1049B00070E0CE0101960E940D2116C060915B024D
:1049C00070915C02AE014F5F5F4F0E944B20BC01B3
:1049D000892B09F441C09091E800977F9093E800FB
:1049E00089819A810E946B218091E8008B77809366
:1049F000E80032C0803881F58091E800877F80939D
:104A0000E800809152028093F1008091E8008E7757
:104A100072CF811121C08091590290915A02992739
:104A20000297D4F48091E800877F8093E80080911A
:104A30005902809352020E940122809152028111F8
:104A400006C08091E30087FD02C081E001C084E0E0
:104A5000809356020E94411F8091E80083FF0AC0A4
:104A60008091E800877F8093E8008091EB0080626E
:104A70008093EB00AA960FB6F894DEBF0FBECDBFB1
:104A8000DF91CF911F9108950895CF9380915602A1
:104A90008823A1F0C091E900CF709091EC00892F9C
:104AA000817090FD80E8C82B1092E9008091E800A9
:104AB00083FD0E94E423CF70C093E900CF91089555
:104AC000DB018F939F930E94CF25BF91AF91A29F4F
:104AD000800D911DA39F900DB29F900D11240895FC
:104AE000AA1BBB1B51E107C0AA1FBB1FA617B70714
:104AF00010F0A61BB70B881F991F5A95A9F7809530
:104B00009095BC01CD01089597FB072E16F40094F3
:104B100007D077FD09D00E94702507FC05D03EF430
:104B2000909581959F4F0895709561957F4F089559
:104B3000A1E21A2EAA1BBB1BFD010DC0AA1FBB1FA1
:104B4000EE1FFF1FA217B307E407F50720F0A21B13
:104B5000B30BE40BF50B661F771F881F991F1A9480
:104B600069F760957095809590959B01AC01BD01AA
:104B7000CF010895EE0FFF1F0590F491E02D0994E9
:104B8000A29FB001B39FC001A39F700D811D11248E
:104B9000911DB29F700D811D1124911D08950E94D9
:104BA000C025A59F900DB49F900DA49F800D911DD1
:104BB00011240895F999FECF92BD81BDF89A9927E5
:104BC00080B50895A8E1B0E042E050E00C940E26D4
:104BD000262FF999FECF92BD81BDF89A019700B4B6
:104BE000021639F01FBA20BD0FB6F894FA9AF99A56
:104BF0000FBE08950396272F0E94E9250E94E825FD
:104C0000252F0E94E925242F0C94E9250196272FB2
:104C10000E94E9250C94E825DC01CB01FC01F999FF
:104C2000FECF06C0F2BDE1BDF89A319600B40D92F8
:0C4C300041505040B8F70895F894FFCFB1
:104C3C0093F4F731333294C63435000000000199F7
:104C4C0001019A01049B0115022808641E140A3202
:104C5C001EA31E001FE11EDD1ED91E01F4F79335A5
:104C6C0034C6E200E900EA00B500B600B700CD009A
:104C7C008301CC008A0192019401210223022402B7
:104C8C002502260227022A02B300B4006F0070002E
:104C9C00818283E200E900EA00B500B600B700CDDE
:104CAC00008301CC008A0192019401210223022489
:104CBC00022502260227022A02B300B4006F0070FC
:044CCC00008182835E
:00000001FF
