:100000000C9419040C94D00D0C9460040C946004AE
:100010000C9460040C9460040C9460040C946004D0
:100020000C9460040C9460040C94C5220C949723E7
:100030000C944C1B0C9460040C9460040C946004AD
:100040000C9460040C9460040C9460040C946004A0
:100050000C9460040C94991B0C9460040C94600440
:100060000C9460040C9460040C9460040C94600480
:100070000C9460040C9460040C9460040C94600470
:100080000C9460040C9460040C9460040C94600460
:100090000C9460040C9460040C9460040C94600450
:1000A0000C9460040C9460040C94600425112511D8
:1000B00057115711A411C211E312E312CD116212AC
:1000C00073127312D312E312E312DC12831383133D
:1000D000951395138C13951395139513831383130D
:1000E000911395139513911304242B2423252B246A
:1000F000232577249A242325F124002529001400A0
:100100001A00080015001700E3000400160007009D
:1001100009000A002B001D001B0006001900050045
:10012000E0000100E100E20001512C002A00130070
:1001300012000C0018001C00340033000F000E00E9
:100140000D000B0039003800370036001000110098
:100150002800010001004C000251E50001001E00D2
:100160001F0020002100220001004A004B004E0029
:100170004D00000001003A003B003C003D003E0005
:100180000100010001000100010001000100270041
:10019000260025002400230001004F0052005100DA
:1001A00050000000010043004200410040003F00B9
:1001B00001000100010001000F51010001001E02B9
:1001C0001F0220022102220201002D002D022E001A
:1001D000570035000100010001000100B600B70022
:1001E00001000100010001000F5101003100300247
:1001F0002F02250224022302010030002F002702D3
:100200002602350201000100A800AA00A900AE00E4
:10021000010001000100010001000100290014009B
:100220001A00080015001700E1000400160007007E
:1002300009000A002B001D001B0006001900050024
:10024000E00001004C00E2000451E1000100130055
:1002500012000C0018001C00010001000100010048
:100260000100010001000100010001000100010086
:1002700001001050010001000100010001001E00FA
:100280001F0020002100220001001E021F02200288
:100290002102220201000100010001000100010011
:1002A0000100010001000100010001000100010046
:1002B0000100010001000100010001000100010036
:1002C0000100010001000100010001000100010026
:1002D00001000100010001000F51010001000100B7
:1002E0000100010001000100010001000100010006
:1002F00001000100010001000100010001000100F6
:1003000001000100010001000100010001000100E5
:1003100001000100010001000100010001000100D5
:10069000010001000100010001000100005C0100F7
:1006A000010001000100010001000100A500A600F9
:1006B000A700500A010001000100010013500100D1
:1006C000160A01000100010001000100B200010052
:1006D000010001000100010001004F08520851080B
:1006E00050084F0A010001000100010010500100F4
:1006F00001000100010001000100010012034C0093
:100700006500760069006E0073006F006E000000E7
:100710000E034B0065006500620069006F00000079
:100720000403090409023B00020100A0FA090400C5
:10073000000103010100092111010001224000070D
:1007400005810308000A09040100010300000009F3
:1007500021110100012281000705820320000A12F5
:100760000110010000000810CB4631000301020017
:100770000105010902A10185020901A1000509196C
:100780000129051500250195057501810295017561
:100790000381010501093009311581257F95027515
:1007A00008810609381581257F95017508810605A0
:1007B0000C0A38021581257F950175088106C0C095
:1007C00005010980A101850319012AB70015012639
:1007D000B700950175108100C0050C0901A10185C4
:1007E0000419012AA002150126A0029501751081A5
:1007F00000C005010906A101050719E029E7150058
:10080000250195087501810295017508810105078B
:10081000190029FF150026FF0095067508810005BF
:100820000819012905950575019102950175039136
:1008300001C011241FBECFEFDAE0DEBFCDBF04B68A
:1008400003FE27C080915F0290916002A091610237
:10085000B09162028730904BA740B04BD1F4109218
:100860005F0210926002109261021092620214BE46
:1008700084B7877F84BF0FB6F894A89580916000F5
:10088000886180936000109260000FBEE0E0F8E3A2
:10089000099511E0A0E0B1E0EAE2FCE402C00590B5
:1008A0000D92A439B107D9F722E0A4E9B1E001C063
:1008B0001D92AF35B207E1F70E9405200C94132674
:1008C0000C9400000E94BE0985E00E942C0A60E0A2
:1008D00070E0CB010E942D1A0C94391A81E0089522
:1008E00081E008950C94700408950C9474041F938F
:1008F000CF93DF9300D000D01F92CDB7DEB74983EE
:100900005A836B833091B40189819A81311114C06B
:10091000662359F0222349F00E94C118182F682F2E
:1009200089819A810E94681803C00E949418182F28
:1009300069817A81812F04C00E94C11869817A81FE
:100940000F900F900F900F900F90DF91CF911F910C
:100950000C943105FC01262F408151816281738105
:1009600084810C947704CF93DF93EC0160E00E94C4
:10097000AA04BE01DF91CF910C9475040E94F31973
:10098000811102C00E949C1A0E94D10A0C944D074A
:100990000C94490708950E9471130E94CA042FEF16
:1009A00084E39CE0215080409040E1F700C00000CB
:1009B0000C94BF1B0F931F93CF93DF93EC0161E067
:1009C0000E94AA048C01BE010E947204882379F15E
:1009D000BE01C8010E94320A882349F1BE01C80144
:1009E0000E94790B882319F1BE01C8010E94CB0B2C
:1009F0008823E9F0BE01C8010E94F60C8823B9F0F3
:100A00008A81882369F001158CE5180731F00F3DC4
:100A10001C4531F40E949C1A0AC00E94CB0407C0F6
:100A2000CE01DF91CF911F910F910C946E0480E065
:100A3000DF91CF911F910F91089508950C941D059A
:100A400081E008950C942005CF93C82F0E941E05C5
:100A50008C2F0E942205CF91089580E090E00895A8
:100A6000089520E3829FC0011124FC0126E0729FBB
:100A7000E00DF11D1124E60FF11DEE0FFF1FE450F4
:100A8000FF4F859194910895880F991FFC01E450C0
:100A9000F94F859194910895CF93DF930E9431058A
:100AA0000E946406EC018115904508F041C0C11513
:100AB00080E4D80708F0D1C0C83ED10510F5C03E8B
:100AC000D10508F0FDC0C83AD10578F4C53AD10582
:100AD00008F0A2C0C130D10509F4F2C008F4EEC09C
:100AE000C430D10508F0ECC0E9C0CF3BD10508F413
:100AF0009BC0C03CD10508F4E1C0CE01805C9109E7
:100B00009EC0C11590E2D90758F4C11521E0D20763
:100B100008F0D6C0C03FD10508F4D0C0D065D0C021
:100B2000C11580E3D80708F08EC0CE019F7087C042
:100B3000C11595E5D90708F043C0C11524E5D207D2
:100B400008F0A2C0C11582E5D80708F5C11591E5E6
:100B5000D90708F085C0CE0174E0969587957A95FF
:100B6000E1F783709C2F937021E030E002C0220FE8
:100B7000331F9A95E2F73C68382BCF70C695C6951F
:100B800080E2C89FE0011124C22BD32B99C09E01A3
:100B9000237033278C2F86958695C115D34508F091
:100BA00064C0C1E0D0E002C0CC0FDD1F2A95E2F79F
:100BB00020E2829FC0011124C82BD92BDC6880C0A1
:100BC000C11529E5D207A0F4C11588E5D80708F0BA
:100BD00060C0C11596E5D90708F070C08C2F0E943F
:100BE000F8068F71C82FD0E0DC2FCC27D06268C008
:100BF000C1152AE5D20708F451C0CE0190568115DF
:100C0000904208F05BC08D2F8F710E94F806DD279F
:100C1000D0628F71D82B54C0C55AD0E0C05ADE4F75
:100C2000C881D0E0D0644CC0C85AD0E0CC0FDD1FE2
:100C3000CE5CDE4F0990D881C02DD46441C00E94A3
:100C40004405EC013DC0CE019927D3FF03C0EC0160
:100C5000D86C36C0EC01D06C33C0DF70D06A30C0C5
:100C6000DC2FCC27C16FD06A2BC0C1E0D0E002C01E
:100C7000CC0FDD1F2A95E2F720E2829FC0011124EC
:100C8000C82BD92BDA681CC0DC2FCC27C46FD06AE4
:100C900017C0DC2FCC27C06FD06A12C08C2F8F708A
:100CA0000E94F80694E0D695C7959A95E1F7CF7023
:100CB000D0E0DC2FCC27D069C82B02C0C0E0D0E048
:100CC000CE01DF91CF9108958238910569F1B0F49A
:100CD0008133910509F46DC048F48932910509F416
:100CE00063C08A32910509F469C00895853391057E
:100CF00009F455C089339105B9F00895833E9105F3
:100D000069F138F4803E9105B1F0823E910509F118
:100D10000895863E9105A9F1873E9105B9F1843E7B
:100D2000910509F064C023C02091500220FD4FC0FE
:100D300021FD4DC008958091500280FD44C08091F6
:100D4000510280FF44C08091500284FD42C083EE76
:100D50004DC08091500282FF38C0F5CF8091500283
:100D600082FD33C08091510280FD31C0ECCF809173
:100D7000510281FF32C08091500284FD2AC087EE6B
:100D800035C08091500283FF26C0F5CF809150027C
:100D900083FD21C08091510281FD1FC0ECCF809165
:100DA000500285FD1CC01DC08091500285FD19C0F8
:100DB00016C08091500286FD16C017C08091500267
:100DC00086FD13C010C089E311C082EE0FC080EE13
:100DD0000DC080E00BC086EE09C084EE07C089E23A
:100DE00005C085E303C08AE201C081E390E0089575
:100DF0009091500292FF0DC0282F2871283019F4CD
:100E0000877F846006C0282F2471243011F48B7FE3
:100E1000886093FF0DC0282F2871283119F4877E30
:100E2000846106C0282F2471243111F48B7E8861DF
:100E30002091510220FF0DC0382F3871383019F43D
:100E4000877F816006C0382F3171313011F48E7F79
:100E5000886021FF0DC0282F2871283119F4877E62
:100E6000816106C0282F2171213111F48E7E8861A5
:100E700094FD877E0895E82FF0E0EF5BFD4F8081C1
:100E80000895089580EA8A95F1F7089508950C94DD
:100E900046070C9447070C9446070C944B07F894AC
:100EA000E82FE295EF70F0E031A1282F2F7081E05C
:100EB00090E001C0880F2A95EAF7982F9095932328
:100EC00091A392A1892B82A3789408950895EF921B
:100ED000FF920F931F93CF93DF93CDB7DEB72E977B
:100EE0000FB6F894DEBF0FBECDBF0E94FA08809106
:100EF0000E0181112FC0FE01319628E0DF011D9205
:100F00002A95E9F724E9298322E32A8323E32B8323
:100F100021E32C83CF01E6E0F1E09E01275F3F4F04
:100F2000DC014D91CD014193A217B307C9F726E02B
:100F3000ECE2F1E0DE01199601900D922A95E1F7BD
:100F4000FC01A0E0B1E0CE010F9621912D93E817AE
:100F5000F907D9F780910E01811102C094E001C018
:100F600090E090934A0284E0891B8093490206E056
:100F700011E0F80181918F010E944F07F1E00A30E2
:100F80001F07B9F700E011E086E0E82E81E0F82EB7
:100F9000D8018D918D010E944F07E016F106C1F72F
:100FA000E9E3F2E0A1E4B2E081E492E011921D9263
:100FB0008E179F07D9F784E00E949F080E94BE0405
:100FC0002E960FB6F894DEBF0FBECDBFDF91CF9146
:100FD0001F910F91FF90EF900C9404090E94DD087F
:100FE0008823F1F08091490290E08F5B9D4F0E9431
:100FF0001709811111C0809194018F5F8093940132
:10100000863060F0E0914902F0E0EF5BFD4F108226
:1010100011821282138202C0109294010C94C804AF
:1010200080914A0290E08F5B9D4F0E943C090C9496
:1010300066078F929F92AF92BF92CF92DF92EF920C
:10104000FF920F931F93CF93DF9386E0A82E81E04A
:10105000B82EC9E3D2E09AE0E92E91E0F92E912C66
:1010600001E010E06501F5018081F894E82FE29538
:10107000EF70F0E021A18F70A80102C0440F551F4E
:101080008A95E2F7CA01922F982B91A392A180959D
:10109000892382A378940E944207E0E0F1E020E0F7
:1010A00030E0812C4191A42FA295AF70B0E09096D2
:1010B0008C9190E04F7002C0959587954A95E2F724
:1010C00080FD07C0802F022E01C0880F0A94EAF726
:1010D00001C080E0882A2F5F3F4F2630310511F78D
:1010E0005FEFA51AB50AF60180810E944F0788813B
:1010F000881619F0888281E001C080E0982A219644
:10110000EA14FB0409F0AECF60914A0270E06F5B15
:101110007D4F292D44E089E392E00E94A0080E94BF
:10112000EE07892DDF91CF911F910F91FF90EF90E6
:10113000DF90CF90BF90AF909F908F9008950895CB
:10114000FF920F931F93CF93DF938C01F62ED72F2F
:10115000C42F222349F081E0809397010E947E1BD7
:101160009093960180939501809197018823C1F017
:1011700080919501909196010E948A1B069780F0BC
:10118000EF2DFD2FD8014C2F50E0CD01801B910B8E
:10119000841795071CF48D918193F7CF10929701D6
:1011A000DF91CF911F910F91FF90089552985A9817
:1011B00089B182FB882780F9089580919801811177
:1011C00012C08091D80080618093D8008AE18A950E
:1011D000F1F700C08091D90080FD02C082E001C01B
:1011E00081E08093980181E090919801913009F01D
:1011F00080E008950E94D60880930E010E94DD08C9
:1012000081110C940B0908950E94DD08811102C020
:101210000C941109089561E070E08FE091E00C9466
:10122000820D61E070E08FE091E00C94890DCF9326
:10123000DF93D82FC92F0E94210E892BC9F4ED2FDF
:10124000FC2F80E090E0DC01A556BE4F2C9121934D
:10125000019684309105B9F70E944E09882319F050
:101260000E94520901C080E080939A0181E001C090
:1012700080E0DF91CF91089520E030E0FC014191C2
:10128000CF01F901E556FE4F40832F5F3F4F2430D9
:101290003105A1F780919A010C94670A80914B0265
:1012A0008170089580914B02869586958695089564
:1012B0000E94F319811102C00E949C1A0E94241AF4
:1012C00080934B02282F26952695269530E02830CE
:1012D000310524F08770886380934B0280914B0224
:1012E00080FF04C086958695869501C080E00C94A9
:1012F000670A20914B02822F869586958695482F06
:1013000050E04730510554F48F5F982F990F990F93
:10131000990F822F8770892B80934B0280914B020B
:10132000816080934B020E94281A80914B0286951F
:10133000869586950C94670A80914B02982F969516
:1013400096959695A1F0915E990F990F990F8770D8
:10135000892B80934B02887F91E009F490E0809183
:101360004B0290FB80F980934B020E94281A8091D7
:101370004B028695869586950C94670A80914B0260
:1013800080FD13C0816080934B02813019F489E0A5
:1013900080934B0280914B020E94281A80914B024D
:1013A0008695869586950C94670A089580914B02E0
:1013B00080FF08C08E7F80934B020E94281A80E035
:1013C0000C94670A089580914B0280FD0C94D60915
:1013D0000C94BE0990914B02892F8695869586952F
:1013E0008F5F8F719770883038F4880F880F880F5F
:1013F000892B80934B0202C090934B0280914B0249
:10140000887F91E009F490E080914B0290FB80F995
:1014100080934B020E94281A80914B0286958695F4
:1014200086950C94670A883008F087E090914B020B
:101430009770282F220F220F220F922B90934B028E
:10144000987F21E009F420E090914B0220FB90F975
:1014500090934B020C94670A0E94130A80914B02EE
:101460000C94281A9C01FB018281882349F12E3BB0
:10147000FCE53F07C9F040F42C3BECE53E0769F082
:101480002D3B3C4561F00895203C9CE5390791F0E7
:1014900070F0213C3C4589F0089587E001C080E070
:1014A0000E942C0A80E008950E949C09FBCF0E94B4
:1014B0007909F8CF0E94E309F5CF0E94EA09F2CF3B
:1014C00081E00895269A2E9808952E980895CF9237
:1014D000DF92EF92FF92CF93C82F883050F48111A2
:1014E00009C0809180008F7D809380000E94650AF2
:1014F00006C0C7E0809180008062809380002C2F1E
:1015000030E0AFEFBFEF0E94B72527E030E040E0CA
:1015100050E00E948F25B42FA32F922F8827492FA8
:101520005A2F6B2F7727CA014C3724E1520728F432
:1015300069E070E00E94672529C0DB01CA018A507A
:10154000974DAF4FBF4F6627782F892F9A2F25EFE2
:1015500038E241E050E00E948F2569017A01CA011A
:10156000B9010E9457259B01AC01C701B6010E9439
:101570005725BB27A92F982F872F009721E0A20777
:10158000B10511F0BC0102C06FEF7FEF70938B00CB
:1015900060938A00CF91FF90EF90DF90CF900895F5
:1015A00008950E94620A82E28093800089E180931C
:1015B00081008FEF9FEF90938700809386000C94BB
:1015C0005809AF92BF92CF92DF92EF92FF920F93A2
:1015D0001F93CF93DF937C015B01C42FD22FFC01BB
:1015E00082818823F9F04093A1010E947E1B909391
:1015F000A00180939F0180E28C0F883008F06EC0BC
:10160000C77081E001C0880FCA95EAF7DF91CF91DA
:101610001F910F91FF90EF90DF90CF90BF90AF9010
:101620000C94E1108091A101481335C080919F0175
:101630009091A0010E948A1B6C01B701C5010E9414
:101640002A16C816D90638F510E21D0FCD17B9F0C5
:1016500080E28C0F883040F4C77081E001C0880FB1
:10166000CA95EAF70E94E810183058F581E09D2FDE
:10167000977001C0880F9A95EAF70E94E110802FB9
:101680000E94CE10183050F5D77081E001C0880F4D
:10169000DA95EAF70AC080E28C0F8830F8F4C77058
:1016A00081E001C0880FCA95EAF7DF91CF911F91C1
:1016B0000F91FF90EF90DF90CF90BF90AF900C9480
:1016C000E810802FDF91CF911F910F91FF90EF9045
:1016D000DF90CF90BF90AF900C94CE10DF91CF9160
:1016E0001F910F91FF90EF90DF90CF90BF90AF9040
:1016F00008950F939C01CB01243F4CE5340731F151
:1017000088F4293DFCE53F07D9F02A3D4CE5340734
:1017100079F1283D3C45A9F506E221EE41EE68ED60
:101720007CE52BC0263FFCE53F07E1F0A8F0273F12
:101730003C4539F507E225EE46EE67EF7CE51DC036
:1017400007E225EE45EE69ED7CE517C006E221EEE5
:1017500040EE64EF7CE511C007E225EE44EE65EF54
:101760007CE50BC006E221EE42EE66EF7CE505C0AB
:1017700008E221E045EE6AED7CE50E94E10A80E0A6
:1017800008C0FC018281882319F01092A10101C0D8
:1017900081E00F910895CF93DF93EC01FB018281EB
:1017A000882309F41FC1C230FCE5DF0708F41BC120
:1017B000C6319CE5D90738F09E012B5F3C452930A6
:1017C000310508F010C10E94061A909351028093CF
:1017D0005002C031ECE5DE0709F4C3C008F041C097
:1017E000C8308CE5D80709F49AC0F0F4C430ECE5B1
:1017F000DE0709F487C068F4C2308CE5D80709F425
:1018000077C0C330DC4509F0E3C0809150028260AC
:1018100076C0C630ECE5DE0709F46EC008F07BC088
:101820008091500288606BC0CC308CE5D80709F4F9
:1018300085C068F4CA30ECE5DE0709F474C008F02E
:1018400079C00E94711380915002806858C0CE30D8
:101850008CE5D80709F476C008F07FC0809150026B
:101860008BC0CC3FECE5DE0709F44FC018F5C3315F
:101870008CE5D80709F47DC078F4C131ECE5DE07CA
:1018800009F473C0C231DC4509F0A2C00E94711393
:10189000809150028F7733C0C5318CE5D80709F4A9
:1018A00072C008F486C0CB3FDC4509F091C080913E
:1018B00051023EC0C115FDE5DF0709F45FC058F4D1
:1018C000CE3F9CE5D90709F444C008F43FC080919D
:1018D000510282602DC0C230FDE5DF0709F475C0FA
:1018E00008F45DC0C330DD4509F072C080E06EC011
:1018F00080915002816003C080915002806180938A
:10190000500266C08091500211C0809151028260E5
:10191000809351025DC0809150028062F0CF80912F
:1019200050028064ECCF8091500288608460E7CFE1
:101930008160EECF809150028E7FE1CF8091500286
:101940008D7FDDCF80915002877FD9CF809151026A
:1019500018C0809151028D7FDBCF809150028F7E25
:10196000CECF809150028F7DCACF809150028F7B65
:10197000C6CF80915002877F8B7FC1CF809151026B
:101980008D7F8E7FC5CF8091500282FB222720F968
:1019900091E0922790FB82F990FB83F9B0CF809180
:1019A0005102982F909591708E7F892B90FB81F931
:1019B000AFCF0E9471138091500287FB222720F93C
:1019C00091E0922790FB87F99ACF81E00E949E1ABE
:1019D00080915002909151020E94171A0E94711337
:1019E00080E001C081E0DF91CF910895CF93DF9334
:1019F00086319C4541F5EB010E944219982F8A815E
:101A00002091170130911801882379F09A7A81E0AA
:101A100009F480E08093A201911102C069E201C043
:101A200065E3C9010E94E51A0AC08091A2018111F3
:101A300002C069E201C065E3C9010E94E71A0E9481
:101A4000901980E001C081E0DF91CF9108958EE18F
:101A5000489B02C08150E1F7489BFECF08955898FB
:101A600080E28A95F1F7589A0895FC012AE02A95B8
:101A7000F1F728E090E080E031E040E14A95F1F7AD
:101A8000880F489B02C08160932700C0000040E19E
:101A90004A95F1F7215089F720E12A95F1F729B10C
:101AA00000C0000030E13A95F1F7217092272081C3
:101AB000920F90830895EF92FF920F931F93CF930D
:101AC000DF931F92CDB7DEB719828C017C01E60E41
:101AD000F11C0E151F0551F00E94270DCE01019635
:101AE0000E94350DF80181938F01F3CF81E0998138
:101AF000911180E00F90DF91CF911F910F91FF9096
:101B0000EF9008959093A4018093A301509A589A5E
:101B100008959093A4018093A3015098589AE89A4D
:101B2000E9E6F0E080818C7F80830895615091E048
:101B300001C0990F6A95EAF720E031E0992361F03E
:101B4000492F482319F0589A232701C0589840E29A
:101B50004A95F1F79695F2CF222311F0589A01C0D9
:101B6000589880E28A95F1F758980895FF920F935C
:101B70001F93CF93DF93EC018C01060F111DC0174B
:101B8000D10741F0F9900E942F0D68E08F2D0E943F
:101B9000960DF5CFDF91CF911F910F91FF90089592
:101BA0001F920F920FB60F9211242F933F934F93D2
:101BB0005F936F937F938F939F93AF93BF93CF93D5
:101BC000DF93EF93FF935898509AC091A301D0915F
:101BD000A4016D81662321F08E819F810E94B60D44
:101BE0000E942F0D80E18A95F1F758985098589AE5
:101BF00080E18A95F1F76A81662351F08B819C819F
:101C00000E945B0DE881F981811104C082E003C06C
:101C1000E881F98188E080830E94270DFF91EF9190
:101C2000DF91CF91BF91AF919F918F917F916F91F4
:101C30005F914F913F912F910F900FBE0F901F908A
:101C40001895CF93DF93C091A301D091A401F8948C
:101C5000509A589885E08A95F1F700005098589A64
:101C600080E28A95F1F7489B0AC0509A589AE88119
:101C7000F98181E08083789481E090E02CC06D81CF
:101C8000662381F08E819F810E945B0D81110AC0C5
:101C9000509A589AE881F98182E08083789482E0B2
:101CA00090E019C00E94270D80E28A95F1F75898BC
:101CB000509A80E18A95F1F76A81662321F08B8141
:101CC0009C810E94B60D0E942F0DE881F98110823F
:101CD000789480E090E0DF91CF9108959093AA01ED
:101CE0008093A9010895E091A901F091AA0130978C
:101CF00021F00190F081E02D099480E00895E091B9
:101D0000A901F091AA01309721F00280F381E02D22
:101D100009940895E091A901F091AA01309739F052
:101D200022E0DC012C930480F581E02D09940895D4
:101D30002091A7013091A8012817390771F09093DD
:101D4000A8018093A701E091A901F091AA01309721
:101D500021F00680F781E02D099408952091A501D6
:101D60003091A6012817390771F09093A60180934E
:101D7000A501E091A901F091AA01309721F000841A
:101D8000F185E02D0994089585B7806885BF85B7F2
:101D9000806885BF08950C94DD0808950C94CD0EDD
:101DA0000C94CD0E0C94D00E0C94CD0E0C94D40E3D
:101DB0000C94CD0E0E94C40E0E94D80E0C94D60E28
:101DC0000E94751B0E9467070E94D01B0E94580941
:101DD0000C94D20EAF92BF92CF92DF92EF92FF920D
:101DE0000F931F93CF93DF93CDB7DEB72A970FB62C
:101DF000F894DEBF0FBECDBF0E94CE0E0E94CD0E66
:101E00000E9419080E94CB0E811111C08FEF8983A7
:101E10008A831B820E947E1B8160782F9D838C8326
:101E200049815A816B818D810E94880F40C08CEA64
:101E3000A82E81E0B82E00E010E0C02E802F0E9476
:101E40003B07E82EF501D1905F01D82631F40F5FF2
:101E50001F4F0830110589F7D9CF8091200281FDED
:101E60000E94410780E0FF24F3949D2D9F21D1F033
:101E70008E83CF82EF2081E009F480E088870E9482
:101E80007E1B8160782F9A8789874E815F81688564
:101E90008A850E94880FF801E455FE4F8081F8265C
:101EA000F08205C08F5FFF0C8630F9F6D0CF0E941C
:101EB000D00A0E947F1D0E94730E9091AB0189177A
:101EC000B1F00E94730E8093AB012A960FB6F8947E
:101ED000DEBF0FBECDBFDF91CF911F910F91FF905D
:101EE000EF90DF90CF90BF90AF900C9424052A968E
:101EF0000FB6F894DEBF0FBECDBFDF91CF911F911B
:101F00000F91FF90EF90DF90CF90BF90AF9008952A
:101F1000CF93DF93CDB7DEB72B970FB6F894DEBF24
:101F20000FBECDBF4F83588769877A878B87DE01C5
:101F3000119686E0FD0111928A95E9F785E0FE0190
:101F4000379601900D928A95E1F749815A816B810C
:101F50007C818D819E810E942D162B960FB6F89460
:101F6000DEBF0FBECDBFDF91CF910895FC01808110
:101F700091810E9403190895CF93882309F4A4C086
:101F8000C82F8238C1F40E94730E81FD9DC069E3A1
:101F900080911701909118010E94E51A0E949019F2
:101FA0002FEF81EE94E0215080409040E1F700C097
:101FB000000069E319C0833801F50E94730E80FDAB
:101FC00083C063E580911701909118010E94E51A82
:101FD0000E9490192FEF81EE94E0215080409040B4
:101FE000E1F700C0000063E58091170190911801AE
:101FF0000E94E71ACF910C9490198438C1F40E9482
:10200000730E82FD61C067E4809117019091180101
:102010000E94E51A0E9490192FEF81EE94E0215062
:1020200080409040E1F700C0000067E4DDCF8CEF16
:102030008C0F813AD0F46C2F809117019091180188
:102040000E94AF1A882349F06C2F8091170190915C
:1020500018010E94E71A0E9490196C2F80911701B5
:10206000909118010E94E51AC5CF80E28C0F88304C
:1020700048F4C77081E001C0880FCA95EAF70E9452
:102080004519B8CFEBE5EC0FE33040F4F0E0EF5644
:10209000FE4F808190E0CF910C94980EE8E5EC0F14
:1020A000E73150F4F0E0EE0FFF1FED59FE4F808155
:1020B0009181CF910C94AE0EC03F30F08C2F0E94D6
:1020C000741CCF910C94611DCF910895882309F45D
:1020D00064C0823879F40E94730E81FF5EC069E3A8
:1020E00080911701909118010E94E51A0E949019A1
:1020F00069E310C08338B1F40E94730E80FF4DC0B5
:1021000063E580911701909118010E94E51A0E94E1
:10211000901963E580911701909118010E94E71AC8
:102120000C949019843879F40E94730E82FF35C0A4
:1021300067E480911701909118010E94E51A0E94AE
:10214000901967E4E7CF9CEF980F913A10F4682F4D
:10215000E1CF90E2980F983050F4877091E001C081
:10216000990F8A95EAF7892F0E944B19D9CF9BE5E1
:10217000980F933020F480E090E00C94980E98E54E
:10218000980F973120F480E090E00C94AE0E803FE1
:1021900020F00E94DC1C0C94611D0895CF93C82F81
:1021A0000E94BC0FC93349F42FEF87EE93E0215012
:1021B00080409040E1F700C000008C2FCF910C943C
:1021C0006610882321F00E9445190C9490190895F7
:1021D000882321F00E944B190C9490190895CF92F6
:1021E000DF92EF92FF920F931F93CF93DF937C01C7
:1021F000062FC72FFC01158112951F70D281D111B6
:102200000E9462190E943B19882399F0DD2389F00E
:102210008C2F807F803421F080E2800F883048F05E
:1022200082E00E94DA190E943B1991E0D82ED9264B
:1022300001C0D12CCC2EC2948FE0C8228C2D90E00E
:10224000FC01EA5AFF4F0C94B1258C2F807FCF7090
:10225000882311F0C295C07FDD2399F0CC2309F4C7
:102260008DC180E2800F883010F0011104C08C2FE6
:102270000E94451903C08C2F0E9455190E94901985
:102280007DC1802F0E946610CC2309F49CC180E29E
:10229000800F883010F0011104C08C2F0E944B1960
:1022A00003C08C2F0E945B190E9490198CC18C2F47
:1022B000807FCF70803211F0C295C07F002319F06B
:1022C0000130C9F022C0DD2371F0112341F011303B
:1022D00031F40E9475198C2B0E947D1974C10E94E3
:1022E00075198C2B1DC0112319F0113009F46BC125
:1022F0000E94861925C0DD2321F0163008F063C145
:102300000EC0153008F05FC11BC0DD2361F0112342
:1023100031F0F701858180FF31C18F7085838C2F6B
:102320000E94E11050C1112359F0093309F037C15F
:10233000FFEF27EE83E0F15020408040E1F72DC110
:102340008C2F0E94E8103FC18C2F86958695837054
:1023500019F0813061F037C1DD2321F0802F9C2FEF
:10236000937002C080E090E00E94980E34C1DD239B
:1023700021F0802F9C2F937002C080E090E00E949B
:10238000AE0E29C1802FDD2319F00E94741C02C0FB
:102390000E94DC1C0E94611D1EC18C2F837009F0FD
:1023A00045C0D11114C1402F429546954770440F46
:1023B000440F602F6F70862F90E0A0E0B0E0042EF5
:1023C00004C0880F991FAA1FBB1F0A94D2F704FFED
:1023D00010C00FE010E020E030E004C0000F111F3B
:1023E000221F331F4A95D2F70095109520953095FE
:1023F00003C000E010E09801C695C695C370BC010B
:10240000CD01602B712B822B932BC23049F058F4F5
:10241000C13019F00E947E17DAC00E946C17D7C035
:102420000E949017D4C00E946A17D1C0DD2319F012
:102430008C2F817001C08695882309F4C8C0402F75
:10244000429546954770440F440F602F6F70862F5A
:1024500090E0A0E0B0E0042E04C0880F991FAA1FEE
:10246000BB1F0A94D2F704FF10C00FE010E020E079
:1024700030E004C0000F111F221F331F4A95D2F70E
:10248000009510952095309503C000E010E098016C
:10249000C695C695C370BC01CD01602B712B822BF4
:1024A000932BC23049F058F4C13019F00E94431800
:1024B0008EC00E9431188BC00E94551888C00E949F
:1024C000A41785C0CF70DD2339F08C2F0E94CA1766
:1024D000802F0E94E1107BC0802F0E94E8108C2F7B
:1024E0000E94EB1774C0023F01F128F4003F41F055
:1024F000013FA1F03FC0033FF9F0043F39F13AC07A
:10250000DD2341F0153008F05EC08C2F8F710E94E2
:10251000101859C0163008F056C0F7CFDD2339F037
:102520008C2F8F710E94CA174EC0DD23C9F38C2FE8
:102530008F710E94EB1747C0DD2329F08C2F8F711C
:102540000E94B51740C00E94B0173DC0DD2349F07E
:10255000CF718C2F0E94CA1763E08C2F0E94C5197F
:1025600032C081E00E94DA19123068F182E00E94E4
:10257000DA1929C0DD2331F0112391F2802F0E9456
:10258000BC0F21C0112399F2093349F49FEFE7EE04
:10259000F3E09150E040F040E1F700C00000802FF0
:1025A0000E94661010C04C2F4F70602FC7010E9410
:1025B0002D050E94DB160FC04C2F4F70602FC701F6
:1025C0000E94300508C088EF8C0D843020F40E94F2
:1025D000730E0E942405DD20C9F00E94371980FD8A
:1025E00015C0F70112820E9431190E94CA17C70153
:1025F0000E9427130E943119DF91CF911F910F91F3
:10260000FF90EF90DF90CF900C94EB17DF91CF917C
:102610001F910F91FF90EF90DF90CF9008950F934F
:102620001F93CF93DF93EC01688179818A810E94A7
:102630000E198C010E9467180E945817B801CE012C
:102640000E94EF10DF91CF911F910F910895CF93CA
:10265000DF93EC01988189812B813C81232B31F020
:102660008F3F31F481E09F3F19F403C081E001C046
:1026700080E080FD19C0CE010E94DA0481110CC0F7
:102680000E943B19882381F08A81882369F082E0C7
:10269000DF91CF910C94DA19CE010E940F13CE0175
:1026A000DF91CF910C94B304DF91CF9108950E94F4
:1026B00062190E9472190E9490190E94921E0E9433
:1026C000611D80E090E00E94980E80E090E00C9404
:1026D000AE0E80911701909118010E94E91A0C9496
:1026E00057130E9452190C946913E92FE295EF7069
:1026F0004E2F50E0FA013297EE30F105B0F4EA596E
:10270000FF4F0C94B125803F91F018F4883E68F497
:102710000EC0843F51F40BC0883E48F0813F29F43D
:1027200006C093FB882780F9089580E0089581E032
:1027300008950E9403190E9475130895CF93DF93A3
:1027400000D000D01F92CDB7DEB70F900F900F9042
:102750000F900F90DF91CF910895CF93DF9300D02A
:1027600000D000D0CDB7DEB726960FB6F894DEBF06
:102770000FBECDBFDF91CF9108951F93CF93DF930D
:10278000C091B50116E08091B601C81799F0D0E06C
:102790001C9FF0011D9FF00D1124E954FE4F408154
:1027A000518162817381848195810E94AD1321964C
:1027B000C770E9CFDF91CF911F9108954091E70154
:1027C0005091E8016091E9017091EA018091EB017B
:1027D0009091EC010C94AD130F931F93CF93DF9363
:1027E0008091EC0182958F7009F05DC08091E901C4
:1027F000882309F458C08091B5011091B601609109
:10280000E7017091E801C091EA01D091EB0191E0FC
:102810006F3F09F090E0292F06E0811709F443C0CB
:10282000209721F07F3F21F030E003C031E001C06C
:10283000322F90E030FD34C0089FF001099FF00D69
:102840001124DF01A954BE4F11963C911197371303
:1028500027C03C91361324C012963C911297311137
:102860001FC013964D915C9114974C1B5D0B483C17
:102870005105B0F48091EC018F7080618093EC0180
:10288000E454FE4F80818F708061808387EE91E0F9
:102890000E942713DF91CF911F910F910C94BD13CC
:1028A00001968770BACFDF91CF911F910F91089554
:1028B0009F92AF92BF92CF92DF92EF92FF920F93CF
:1028C0001F93CF93DF93CDB7DEB761970FB6F89420
:1028D000DEBF0FBECDBF8C0185E0F801DE011D9685
:1028E00001900D928A95E1F7F80140815181E280D3
:1028F0009091E7016091E8012091EA013091EB01AC
:102900002115310531F06F3F31F481E09F3F19F41B
:1029100003C081E001C080E0F82FF1709F2E80FDA0
:1029200046C1F801A380B48087EEC82E81E0D82E7E
:10293000F090E901F501E21BF30BFF2009F4DFC081
:102940008091EC01E83CF10508F09BC0282F207F26
:1029500009F052C0561313C0491311C0FE2CE110E8
:102960000EC08F7080618093EC010E94DE13C6015F
:102970000E9427138091EC01F801858358C1AB2890
:1029800031F05F3F31F481E04F3F19F403C081E043
:1029900001C080E080FD03C081E08E2502C080E0A0
:1029A00090E0F82FF170FF2E80FF1CC08091B501E0
:1029B0002091B60136E0821709F417C190E0389FE4
:1029C000F001399FF00D1124E954FE4F6181561337
:1029D00006C06081461303C06281E61203C00196FF
:1029E0008770E9CFFE2CEE2009F421C18091EC0123
:1029F00081608093EC015AC0561306C0491304C08D
:102A0000E11002C0F8019FC04D875E878D859E85CD
:102A10000E949913882379F1EE2069F12091EC014D
:102A2000822F82958F7090E0029774F08091E70179
:102A30009091E80198878F831986BB86AA862C8798
:102A4000CE0107960E94271386E0F801A7EEB1E0B9
:102A500001900D928A95E1F70E94EC130E94DE131B
:102A60000DC0561729F14D875E878D859E850E9482
:102A7000991381112CC0C8010E942713FF24F394DD
:102A8000D6C0282F207F69F77A2DB98AA88A6E2DA3
:102A900089890E949E1387EE91E00E94271386E0A9
:102AA000F60111928A95E9F70E94DE13F12CBFC05E
:102AB0004913D9CFE110D7CFF8018583C8010E940F
:102AC000271386E0F60111928A95E9F7B0C0EE204F
:102AD00091F22091EC01822F82958F7090E0029705
:102AE0000CF4B2CF8091E7019091E8019A83898339
:102AF0001B82BD82AC822E83CE010196A3CFE83C1F
:102B0000F10508F047C0FE2CEE2009F4B4CF5613AF
:102B100030C049132EC02091EC0120FD21C0822F2E
:102B200082958F70482F50E041155105C9F0F8018A
:102B300025834F30510541F08F5F982F9295907FFC
:102B4000822F8F70892B8583C8010E94271386E00E
:102B5000F801A7EEB1E001900D928A95E1F742C02D
:102B600086E0F801A7EEB1E001900D928A95E1F7B9
:102B70005EC04D875E878D859E850E949913811169
:102B800063CF8091EC0181608093EC01C8010E94C9
:102B900027134DC07A2DB98AA88A6E2D89890E9483
:102BA0009E1386E0F60111928A95E9F71BC0EE208C
:102BB00009F461CF4D875E878D859E850E949913AC
:102BC000F82E882309F457CF86E0F801A7EEB1E08C
:102BD00001900D928A95E1F787EE91E00E94B60F81
:102BE0000E94EC130E94DE1322C04D875E878D8504
:102BF0009E850E940319292F22952F70223028F4D8
:102C00009F7039F0811105C00BC0243028F49F70EB
:102C100049F4805E883020F0C8010E9427139F2C61
:102C2000F92C05C0F8019581907F99F7F9CF8F2D88
:102C300061960FB6F894DEBF0FBECDBFDF91CF9186
:102C40001F910F91FF90EF90DF90CF90BF90AF90CA
:102C50009F90089588EC90E008951F93CF93DF93A1
:102C6000CDB7DEB72C970FB6F894DEBF0FBECDBF41
:102C70004F83588769877A878B879C87CE01079611
:102C80000E9458148823D1F09F8188852A853B852E
:102C9000232B31F08F3F31F481E09F3F19F403C0C3
:102CA00081E001C080E080FD47C04F815885698583
:102CB0007A858B859C850E94AD133EC086E0FE011F
:102CC0003796DE01119601900D928A95E1F7FF810A
:102CD000E8856A857B856115710531F0EF3F31F438
:102CE00081E0FF3F19F403C081E001C080E080FD76
:102CF00023C02091B60130E0C90101968770992761
:102D00004091B50150E084179507F1F1F983EA830A
:102D10007D836C8396E0929FD001939FB00D112428
:102D2000A954BE4FFE01319601900D929A95E1F79C
:102D30008093B6010E94BD1316E08091B501909179
:102D4000B601891771F1189FC001112489549E4F53
:102D50000E945814882329F1E091B5011E9FF001CB
:102D60001124E954FE4F4081518162817381848135
:102D700095810E94AD138091B50190E00196877016
:102D800099278093B501D9CF0E9471131092B60193
:102D90001092B501E7EEF1E086E0DF011D928A9521
:102DA000E9F72C960FB6F894DEBF0FBECDBFDF91CA
:102DB000CF911F910895EF92FF920F931F93CF939E
:102DC000DF938C01892B09F46CC0F12CEE24E39481
:102DD000E8012196F8018491843740F4843008F0AA
:102DE00051C0813081F0823019F15BC0853709F420
:102DF00044C0A8F19CE7980F903708F052C08F7735
:102E00000E94661041C00E5F1F4FFE01849190E248
:102E1000980F983050F48770FE2D01C0FF0F8A95EF
:102E2000EAF78F2F0E94651914C00E94BC0F2DC0B5
:102E30000E5F1F4FFE01849190E2980F983060F46E
:102E40008770FE2D01C0FF0F8A95EAF78F2F0E9431
:102E50006B190E94901919C00E94661016C00E5F6F
:102E60001F4FFE01C491CC2381F08FE99FE00197B1
:102E7000F1F700C00000C150F6CF0E5F1F4FFE01FA
:102E8000F49003C00E94BC0F8E018F2D882309F49B
:102E90009FCFEFE9FFE03197F1F700C000008150CC
:102EA000F5CFDF91CF911F910F91FF90EF90089593
:102EB000089508950C9459170C945A170E945C17A2
:102EC00060930F027093100280931102909312028C
:102ED0000C9457130C945E170F931F9300910F02DD
:102EE000109110022091110230911202602B712B6F
:102EF000822B932B1F910F910C945E170F931F93AE
:102F000000910F02109110022091110230911202D3
:102F100060237123822393231F910F910C945E17DA
:102F20000F931F9300910F02109110022091110234
:102F30003091120260277127822793271F910F91EA
:102F40000C945E170C9459170E94A21760930B0201
:102F500070930C0280930D0290930E020C94571301
:102F600060E070E0CB010C94A4170F931F9341E035
:102F700050E060E070E08A019B0104C0000F111F67
:102F8000221F331F8A95D2F7C901B8011F910F91F3
:102F90000C94A4170F931F9341E050E060E070E0A1
:102FA00004C0440F551F661F771F8A95D2F7809182
:102FB0000B0290910C02A0910D02B0910E028A01B9
:102FC0009B01082B192B2A2B3B2BC901B8011F9100
:102FD0000F910C94A4170F931F9341E050E060E011
:102FE00070E004C0440F551F661F771F8A95D2F703
:102FF000409550956095709580910B0290910C02D0
:10300000A0910D02B0910E028A019B0108231923A1
:103010002A233B23C901B8011F910F910C94A417D7
:103020000F931F9341E050E060E070E004C0440F54
:10303000551F661F771F8A95D2F780910B029091DA
:103040000C02A0910D02B0910E028A019B0108278B
:1030500019272A273B27C901B8011F910F910C940A
:10306000A4170F931F9300910B0210910C02209153
:103070000D0230910E02602B712B822B932B1F912E
:103080000F910C94A4170F931F9300910B021091B2
:103090000C0220910D0230910E02602371238223D5
:1030A00093231F910F910C94A4170F931F930091DA
:1030B0000B0210910C0220910D0230910E0260273C
:1030C0007127822793271F910F910C94A4170895BD
:1030D000292F220F920F990F890FE82FE695E69579
:1030E000E695877051E001C0550F8A95EAF785E0B3
:1030F000E89FF0011124E351FE4F20E030E070E042
:103100004081CB01022E02C0969587950A94E2F782
:103110008170819584278523842781932F5F3F4F7A
:103120002530310569F70895292F220F920F990F45
:10313000890F682F669566956695982F977085E03C
:10314000689FB001112440E050E080E0FB01E40FF3
:10315000F51FE351FE4F208130E0092E02C0369565
:1031600027950A94E2F721703327042E01C0220F1D
:103170000A94EAF7822B4F5F5F4F4530510531F7D4
:103180000895BF92CF92DF92EF92FF920F931F9319
:10319000CF93DF938C01C0900B02D0900C02E09093
:1031A0000D02F0900E0280910F0290911002A091FA
:1031B0001102B0911202C82AD92AEA2AFB2ACFE1C9
:1031C000D0E0D701C6010C2E04C0B695A7959795FF
:1031D00087950A94D2F780FD04C0219790F7B12C0F
:1031E00007C0BC2EB8018C2F0E944C050197A9F393
:1031F0008B2DDF91CF911F910F91FF90EF90DF907A
:10320000CF90BF900895CF93DF93EC010E94C11837
:10321000BE010E944C05DF91CF9108951F93CF937B
:10322000DF93EB019091B401992321F0CB010E942F
:10323000031913C0882349F0CB010E94C118182F2D
:10324000682FCE010E94681804C0CB010E94941818
:10325000182FBE01812F0E944C05DF91CF911F9145
:10326000089580911302859585958595089580919F
:1032700013028770089590911302977081E009F40A
:1032800080E0089580911F02089590911F02892B7C
:1032900080931F020895809590911F028923809347
:1032A0001F02089510921F02089590911E02892B0B
:1032B00080931E020895809590911E028923809329
:1032C0001E02089510921E02089590911D02892BEE
:1032D00080931D020895809590911D02892380930B
:1032E0001D02089510921D02089580911402089500
:1032F00008950C9478190C947919909114029817E8
:1033000021F0809314020C947B190895809114028B
:10331000882329F01092140280E00C947B19089500
:10332000E0911701F091180180911F028083E091D4
:103330001701F0911801908180911E02892B8083E2
:10334000E0911701F0911801908180911D02892B65
:10335000808380911402882381F0E0911701F0911D
:1033600018019081892B8083809117019091180119
:103370000E94A31A81110E948619809117019091D1
:1033800018010C947F0E0C94781998E0899F900195
:103390001124262B209313020E94CA178091130236
:1033A0008595859585950C94C3191092130280E03C
:1033B0000C94C319209113028095822380931302E9
:1033C000982F977079F430E0482F082E000C550B99
:1033D0002417350739F08595859585950E94EB175B
:1033E0000C94D519089580E090E00E94D92521E041
:1033F0008C3E9E4F09F020E0822F089582E090E0FD
:103400000C94D12583E090E00C94D125CF9384E0F7
:1034100090E00E94D125C82F81E290E00E94D12542
:103420002C2F30E0A901582BCA01CF910895CF93DA
:10343000C92F682F84E090E00E94DF256C2F81E285
:1034400090E0CF910C94DF2586E090E00C94D1259C
:10345000682F86E090E00C94DF25AB01BC018FE083
:1034600090E00C94F125AB01BC0183E190E00C9459
:10347000F12560E070E0CB010C94331A6CEE7EEF26
:1034800080E090E00E94FD2560E082E090E00E94F4
:10349000DF2560E083E090E00E94DF2510920F02BC
:1034A00010921002109211021092120260E084E059
:1034B00090E00E94DF2560E081E290E00E94DF253D
:1034C00060E085E090E00E94DF2560E086E090E02B
:1034D0000E94DF256FEF87E090E00E94DF2540E04B
:1034E00050E0BA0188E090E00E94F12560E08DE0B4
:1034F00090E00E94DF2540E050E0BA0188E190E0D2
:103500000E94F12560E087E190E00E94DF2540E025
:1035100050E0BA018CE190E00E94F12560E080E289
:1035200090E00E94DF2540E050E0BA0188E190E0A1
:103530000E94F1250C9462040C943E1A682F8EE0D0
:1035400090E00C94DF25FC01329697E080E09150EA
:1035500029F021912223D9F38F5FF9CF08956623B3
:1035600049F0FC01329608962191621729F0E8177C
:10357000F907D1F780E0089581E008959C01FC01EE
:1035800032969FEF80E04191461789F09F3F19F4F2
:10359000411101C0982F8F5F8630A9F79F3F39F006
:1035A000F901E90FF11D97FDFA95628308950895D9
:1035B0009C012A5F3F4FFC014281461301C01282E9
:1035C000019682179307B9F708950C94BE1A0C94CC
:1035D000D81A029626E0FC0111922A95E9F708957F
:1035E00008950C94F01A0C94F01ACF930E94F31AD9
:1035F0000E9419080E94F11AC0E08C2F0E943B071C
:10360000811104C0CF5FC830C1F701C081E0CF9104
:1036100008950C94F01A0C94091B0E940B1B8091C6
:103620005602843061F11092210220E488E190E09A
:103630000FB6F894A895809360000FBE20936000A9
:1036400080E00E94670A80E00E9424050E940B1B14
:1036500083B7817F846083BF83B7816083BF7894A1
:10366000889583B78E7F83BF0FB6F894A895809115
:103670006000886180936000109260000FBE089522
:103680000C94F01A0E9471130E9458090E94730E44
:103690000E9424050C94401B1F920F920FB60F92AC
:1036A00011248F939F93AF93BF9380912102811137
:1036B00013C080914C0290914D02A0914E02B091A6
:1036C0004F024196A11DB11D80934C0290934D0273
:1036D000A0934E02B0934F02BF91AF919F918F91F3
:1036E0000F900FBE0F901F90189582E084BD93E05D
:1036F00095BD9AEF97BD80936E0008952FB7F8940B
:1037000080914C0290914D02A0914E02B0914F02D7
:103710002FBF08959C014FB7F89480914C0290916F
:103720004D02A0914E02B0914F024FBF821B930BEE
:10373000089578941F920F920FB60F9211248F93D1
:103740009F93AF93BF9380914C0290914D02A091B3
:103750004E02B0914F020196A11DB11D80934C0203
:1037600090934D02A0934E02B0934F02BF91AF9140
:103770009F918F910F900FBE0F901F90189587E724
:1037800097E790930108809300089AE088E10FB6CC
:10379000F894A895809360000FBE90936000FFCFCF
:1037A0000E94F319811102C00E949C1A0E94FE1906
:1037B000809320020E94061A909351028093500237
:1037C0000E94021A682F70E080E090E00E946A1761
:1037D00060910B0270910C0280910D0290910E028B
:1037E0000C94A2178091280280FF0BC060911E01EB
:1037F00085E0689FB001112475956795759567956B
:103800002BC081FF09C060911E0185E0689FB00157
:1038100011247595679520C082FF07C060911E0135
:1038200085E0689FB001112417C090912702992369
:10383000D1F060911D01961788F720911E0185E057
:10384000289F90011124929FA001939F500D112455
:1038500070E0CA010E947B256038710540F4611553
:10386000710519F406C065E070E0862F08958FE7B2
:10387000089581E008958091280280FF08C060913A
:103880001A0170E0759567957595679521C081FF60
:1038900006C060911A0170E07595679519C082FFA6
:1038A00004C060911A0170E010C090912602992323
:1038B00099F0609119019617A0F780911A01899FDC
:1038C000C001112470E00E947B256038710540F42E
:1038D0006115710519F406C061E070E0862F089546
:1038E0008FE7089581E00895803F21F40E94F21B44
:1038F000819504C0813F29F40E94F21B80932C0221
:103900000895823F21F40E94F21B819504C0833FF9
:1039100029F40E94F21B80932B020895893F19F429
:103920000E943B1C05C08A3F31F40E943B1C8195DC
:1039300080932D0208958B3F21F40E943B1C8195BA
:1039400004C08C3F29F40E943B1C80932E020895F2
:10395000843F21F480912A02816017C0853F21F4C1
:1039600080912A02826011C0863F21F480912A0250
:1039700084600BC0873F21F480912A02886005C0D3
:10398000883F31F480912A02806180932A02089551
:103990008D3F21F48091280281600BC08E3F21F47D
:1039A00080912802826005C08F3F29F4809128020F
:1039B0008460809328020895803F39F480912C021E
:1039C00087FF6AC010922C0267C0813F29F4809162
:1039D0002C021816BCF360C090912B02823F29F490
:1039E00097FF5AC010922B0257C0833F19F4191643
:1039F000CCF352C090912D02893F31F419160CF08E
:103A00004BC010922D0248C08A3F19F497FF44C062
:103A1000F8CF8B3F39F480912E0287FF3DC0109282
:103A20002E023AC08C3F29F480912E021816BCF366
:103A300033C0843F21F480912A028E7F17C0853FD6
:103A400021F480912A028D7F11C0863F21F480915C
:103A50002A028B7F0BC0873F21F480912A02877F47
:103A600005C0883F31F480912A028F7E80932A021C
:103A700013C08D3F21F4809128028E7F0BC08E3FB2
:103A800021F4809128028D7F05C08F3F29F4809119
:103A900028028B7F8093280280912B02811106C01F
:103AA00080912C02811102C01092270280912D0278
:103AB000811106C080912E02811102C0109226024F
:103AC00008950E947E1B20912B02211104C0209199
:103AD0002C02222321F0909325028093240220912E
:103AE0002D02211104C020912E02222321F0909357
:103AF00023028093220289E292E00C948A0EEF92D4
:103B0000FF920F931F93CF93DF9300D000D000D08C
:103B1000CDB7DEB786E0E9E2F2E0DE011196019072
:103B20000D928A95E1F7E0902B02F0902C02009123
:103B30002D0210912E0210922B0210922C02109244
:103B40002D0210922E02E11003C0FF2009F45DC087
:103B500080912402909125020E948A1BAC019091D1
:103B60002702992339F020911F0130E024173507EF
:103B700058F04BC0209120018AE0289F9001112429
:103B80002417350718F041C09F3F19F09F5F9093AD
:103B90002702EE2061F00E94F21B1E1414F09FEF2A
:103BA00001C091E0989F902D112490932B02FF204B
:103BB00061F00E94F21B1F1414F09FEF01C091E00E
:103BC000989F902D112490932C0230912B02332337
:103BD000E1F020912C022223C1F045EB3403C00117
:103BE0001124992319F090932B0203C081E0809354
:103BF0002B0235EB2303C0011124992319F0909374
:103C00002C0203C081E080932C02011103C0112318
:103C100009F45DC080912202909123020E948A1BC8
:103C2000AC0190912602992339F020911B0130E0DC
:103C30002417350758F04BC020911C018AE0289FBB
:103C4000900111242417350718F041C09F3F19F047
:103C50009F5F90932602002361F00E943B1C101688
:103C600014F09FEF01C091E0989F902D1124909344
:103C70002D02112361F00E943B1C111614F09FEFDE
:103C800001C091E0989F902D112490932E023091C5
:103C90002D023323E1F020912E022223C1F045EBC7
:103CA0003403C0011124992319F090932D0203C00D
:103CB00081E080932D0235EB2303C0011124992369
:103CC00019F090932E0203C081E080932E02809120
:103CD0002B0281110BC080912C02811107C08091B1
:103CE0002D02811103C080912E0281110E94611D5D
:103CF000EB82FC820D831E8386E0FE013196A9E2F1
:103D0000B2E001900D928A95E1F726960FB6F894ED
:103D1000DEBF0FBECDBFDF91CF911F910F91FF90FE
:103D2000EF900895E9E2F2E086E0DF011D928A95C6
:103D3000E9F71092270210922602109228020895A5
:103D4000809137020895CF93DF9300D01F92CDB7B3
:103D5000DEB790915602943019F589837B836A838C
:103D600082E08093E9008FEF9091E800815095FD0B
:103D700006C095ED9A95F1F700008111F5CF80917D
:103D8000E80085FF0DC040E050E063E070E0CE0148
:103D900001960E94B9208091E8008E778093E80018
:103DA0000F900F900F90DF91CF910895BC0184E0A8
:103DB0000C94A31EBC0183E00C94A31E22E020936C
:103DC000E9002FEF3091E800215035FD06C035EDB8
:103DD0003A95F1F700002111F5CF2091E80025FF79
:103DE0000BC040E050E066E070E00E94B920809196
:103DF000E8008E778093E8000895CF93DF9321E069
:103E00002093E9002FEF3091E800215035FD06C0E6
:103E100035ED3A95F1F700002111F5CF2091E8003A
:103E200025FF14C0EC0140E050E068E070E00E9423
:103E3000B9208091E8008E778093E80088E0FE0149
:103E4000AFE2B2E001900D928A95E1F7DF91CF9158
:103E5000089580915502811109C00E944A220E9452
:103E6000A7228091E20084608093E200089510927E
:103E700055020895089508950C94421B42E061ECA8
:103E800081E00E94C32142E261EC82E00C94C321F4
:103E900080915802833009F460C030F4813071F0B1
:103EA000823009F499C008958A3009F485C08B30B6
:103EB00009F46BC0893009F0A7C020C08091570277
:103EC000813A09F0A1C08091E800877F8093E800E3
:103ED00080915B0290915C02892B21F468E08FE273
:103EE00092E003C060E080E090E070E00E94042176
:103EF0008091E8008B778093E800089580915702C5
:103F0000813209F081C080915B0290915C0202973E
:103F100008F07AC08091E800877F8093E800809164
:103F2000E80082FD05C0809156028111F8CF6CC077
:103F30002091F3008091F20090E0922B029729F4F7
:103F40008091F1008B7F813021F48091F10080938A
:103F500037028091E8008B7753C080915702813AF5
:103F600009F052C080915B0290915C02892B09F0AC
:103F70004BC08091E800877F8093E8008091E80043
:103F800080FFFCCF80912B0136C080915702813297
:103F9000D9F580915B0290915C02892BA9F5809103
:103FA000E800877F8093E8000E94F8218091590201
:103FB00080932B010C94711380915702813221F56B
:103FC0008091E800877F8093E8000E94F82180912B
:103FD0005A0280933802089580915702813AA1F4E1
:103FE0008091E800877F8093E8008091E80080FF5F
:103FF000FCCF809138028093F1008091E8008E77A9
:104000008093E8000C94F821089584B7877F84BFDB
:104010000FB6F894A8958091600088618093600045
:10402000109260000FBE90E080E80FB6F894809385
:104030006100909361000FBE0E94DA0E0E944A2236
:104040000E94A7228091E20084608093E20078942D
:104050000E943C250E94E00E81E291E00E946E0EDB
:1040600080915602853069F40E940D1B80915402A4
:104070008823B1F30E94F51A882391F30E94A320AC
:10408000EFCF0E94EA0E0E94CE0E0E94CD0EE8CF26
:104090000C944A20292F332723303105C9F060F4CE
:1040A0002130310581F02230310509F044C08BE325
:1040B00090E024E237E043C021323105E1F02232C2
:1040C000310549F138C082E190E02FE537E037C093
:1040D00099278130910549F028F0029761F5ECEFBE
:1040E000F6E005C0E0E2F7E002C0E0E1F7E084912D
:1040F00090E09F0124C06115710541F061307105A8
:10410000D1F489E090E02FE437E019C089E090E035
:1041100026E337E014C06115710541F06130710587
:1041200051F481E890E021E737E009C080E490E0B5
:1041300022EF37E004C080E090E020E030E0FA01B8
:1041400031832083089580E189BD82E189BD09B46E
:1041500000FEFDCF8091D8008F7D8093D8008091A4
:10416000E00082608093E0008091E00081FDFCCF60
:104170000895CF92DF92EF92FF920F931F93CF9308
:10418000DF93EC018B017A010E941722811133C069
:10419000E114F10439F0F70180819181081B190BBA
:1041A000C80FD91FC12CD12C0115110519F180910F
:1041B000E80085FD16C08091E8008E778093E800C6
:1041C000E114F10449F0F70180819181C80ED91EF4
:1041D000D182C08285E00FC00E941722882321F37C
:1041E0000AC089918093F10001501109FFEFCF1AA5
:1041F000DF0ADACF80E0DF91CF911F910F91FF901E
:10420000EF90DF90CF90089520915D0230915E0293
:104210002617370748F06115710539F42091E80039
:104220002E772093E80001C0B901FC0120E0611560
:10423000710579F1809156028823F1F18530F1F111
:104240008091E80083FD3CC08091E80082FD2EC093
:104250008091E80080FFEBCF2091F3008091F20085
:1042600090E0922B6115710551F08830910538F47A
:1042700021912093F100615071090196F3CF21E063
:10428000089709F020E08091E8008E778093E8009D
:10429000CECF2111CFCF0AC080915602882361F082
:1042A000853061F08091E80083FD0AC08091E800CC
:1042B00082FFF2CF80E0089582E0089583E00895C0
:1042C00081E0089520915D0230915E022617370744
:1042D00048F06115710539F42091E8002E7720939C
:1042E000E80001C0B901FC0120E06115710591F100
:1042F00080915602882309F440C0853009F43FC0FC
:104300008091E80083FD3DC08091E80082FD2FC0D0
:104310008091E80080FFE9CF2091F3008091F200C6
:1043200090E0922B6115710559F08830910540F4A9
:1043300024912093F1003196615071090196F2CFDA
:1043400021E0089709F020E08091E8008E778093C3
:10435000E800CBCF2111CCCF0AC080915602882330
:1043600061F0853061F08091E80083FD0AC08091A2
:10437000E80082FFF2CF80E0089582E0089583E0B4
:10438000089581E00895982F973068F59093E9009B
:10439000981739F07091EC002091ED005091F000E9
:1043A00003C0242F762F50E021FD02C09F5FECCF89
:1043B0003091EB003E7F3093EB003091ED003D7F7C
:1043C0003093ED003091EB0031603093EB0070934F
:1043D000EC002093ED005093F0002091EE0027FDBB
:1043E000E5CF80E008958F708093E90081E0089523
:1043F0008091570287FF11C08091E80082FD05C0BF
:10440000809156028111F8CF11C08091E8008B771E
:104410000BC080915602882349F08091E80080FF0C
:10442000F8CF8091E8008E778093E800089520917E
:10443000E4003091E50095E64091EC00842F817016
:1044400040FF23C08091E80080FD1DC0809156028E
:10445000882399F0853099F08091EB0085FD11C09B
:104460004091E4005091E5002417350729F391505D
:1044700011F09A01E1CF84E0089582E0089583E08D
:10448000089581E0089580E008954091E80042FF9A
:10449000DDCF08950E94B8220E94C022E0EEF0E035
:1044A000808181608083E8EDF0E080818F77808378
:1044B00019BCA7EDB0E08C918E7F8C9380818F7EAC
:1044C00080831092550208950F931F93CF93DF932B
:1044D0000E94B8220E94C022C8EDD0E088818F7768
:1044E000888388818068888388818F7D888319BCD0
:1044F00010925602109252021092540210925302DD
:1045000000EE10E0F80180818B7F808388818160DC
:10451000888342E060E080E00E94C321E1EEF0E0A9
:1045200080818E7F8083E2EEF0E0808181608083F5
:10453000808188608083F80180818E7F808388817C
:1045400080618883DF91CF911F910F910895E8EDED
:10455000F0E080818F7E8083E7EDF0E080818160F4
:10456000808384E082BF81E0809355020C946422B2
:10457000E8EDF0E080818E7F80831092E200089564
:104580001092DA001092E10008951F920F920FB678
:104590000F9211242F933F934F935F936F937F93C9
:1045A0008F939F93AF93BF93EF93FF938091E1001D
:1045B00082FF0BC08091E20082FF07C08091E10082
:1045C0008B7F8093E1000E943B258091DA0080FF81
:1045D0001FC08091D80080FF1BC08091DA008E7FC1
:1045E0008093DA008091D90080FF0DC080E189BD01
:1045F00082E189BD09B400FEFDCF81E080935602BF
:104600000E94291F05C019BC109256020E94371F34
:104610008091E10080FF19C08091E20080FF15C009
:104620008091E2008E7F8093E2008091E2008061C1
:104630008093E2008091D80080628093D80019BCFA
:1046400085E0809356020E943B1F8091E10084FF29
:1046500030C08091E20084FF2CC080E189BD82E1FE
:1046600089BD09B400FEFDCF8091D8008F7D809375
:10467000D8008091E1008F7E8093E1008091E2007C
:104680008F7E8093E2008091E20081608093E2005F
:1046900080915202882311F084E007C08091E300EA
:1046A00087FD02C081E001C083E0809356020E9432
:1046B0003C1F8091E10083FF29C08091E20083FFCD
:1046C00025C08091E100877F8093E10082E08093A4
:1046D0005602109252028091E1008E7F8093E10099
:1046E0008091E2008E7F8093E2008091E200806101
:1046F0008093E20042E060E080E00E94C32180916C
:10470000F00088608093F0000E943A1FFF91EF91C3
:10471000BF91AF919F918F917F916F915F914F91D9
:104720003F912F910F900FBE0F901F9018951F92E1
:104730000F920FB60F9211242F933F934F935F93D5
:104740006F937F938F939F93AF93BF93CF93DF9399
:10475000EF93FF93C091E900CF708091EC00D82FC8
:10476000D17080FDD0E81092E9008091F000877F41
:104770008093F00078940E94DB231092E9008091EE
:10478000F00088608093F000CD2BCF70C093E900DB
:10479000FF91EF91DF91CF91BF91AF919F918F9159
:1047A0007F916F915F914F913F912F910F900FBE2D
:1047B0000F901F9018951F93CF93DF93CDB7DEB75F
:1047C000AA970FB6F894DEBF0FBECDBFE7E5F2E0C3
:1047D0008091F100819322E0EF35F207C9F70E9442
:1047E000481F8091E80083FF2EC18091570290916D
:1047F0005802492F50E04A30510508F024C1FA010F
:10480000EC58FF4F0C94B125803821F0823809F024
:104810001AC108C08091530290915402992389F0E3
:1048200082600FC080915B028F70873008F00BC1EF
:104830008093E9008091EB0085FB882780F9109236
:10484000E9009091E800977F9093E8008093F10051
:104850001092F100D1C0282F2D7F09F0F4C08823D9
:1048600019F0823061F0EFC080915902813009F077
:10487000EAC0933009F080E0809354022EC080910A
:10488000590281112AC080915B028F702FEF280F8F
:10489000263008F0D8C08093E9002091EB0020FF7B
:1048A0001CC0933021F48091EB00806214C0909181
:1048B000EB0090619093EB0021E030E0A90102C091
:1048C000440F551F8A95E2F74093EA001092EA00E0
:1048D0008091EB0088608093EB001092E90080915A
:1048E000E800877F8093E8000E94F821ACC0811126
:1048F000AAC0109159021F778091E3008078812B24
:104900008093E3008091E800877F8093E8000E9415
:10491000F8218091E80080FFFCCF8091E30080685F
:104920008093E300111102C082E001C083E0809314
:10493000560289C08058823008F085C080915902A3
:1049400090915A028C3D53E0950779F583E08A8374
:104950008AE289834FB7F894DE01139620E03EE0A7
:1049600051E2E32FF0E050935700E49120FF03C0A1
:10497000E295EF703F5FEF708E2F90E0EA3010F01D
:10498000C79601C0C0968D939D932F5F243149F740
:104990004FBF8091E800877F8093E8006AE270E073
:1049A000CE0101960E94042116C060915B027091B5
:1049B0005C02AE014F5F5F4F0E944820BC01892B13
:1049C00009F441C09091E800977F9093E8008981B5
:1049D0009A810E9462218091E8008B778093E800A1
:1049E00032C0803881F58091E800877F8093E800AD
:1049F000809152028093F1008091E8008E7772CF0F
:104A0000811121C08091590290915A0299270297F1
:104A1000D4F48091E800877F8093E8008091590268
:104A2000809352020E94F82180915202811106C0A7
:104A30008091E30087FD02C081E001C084E08093A3
:104A400056020E943E1F8091E80083FF0AC08091B9
:104A5000E800877F8093E8008091EB00806280937C
:104A6000EB00AA960FB6F894DEBF0FBECDBFDF9164
:104A7000CF911F9108950895CF9380915602882376
:104A8000A1F0C091E900CF709091EC00892F817066
:104A900090FD80E8C82B1092E9008091E80083FD2A
:104AA0000E94DB23CF70C093E900CF910895DB0112
:104AB0008F939F930E94C625BF91AF91A29F800DB7
:104AC000911DA39F900DB29F900D11240895AA1BD4
:104AD000BB1B51E107C0AA1FBB1FA617B70710F0E9
:104AE000A61BB70B881F991F5A95A9F7809590951B
:104AF000BC01CD01089597FB072E16F4009407D052
:104B000077FD09D00E94672507FC05D03EF49095FB
:104B100081959F4F0895709561957F4F0895A1E20B
:104B20001A2EAA1BBB1BFD010DC0AA1FBB1FEE1F27
:104B3000FF1FA217B307E407F50720F0A21BB30B72
:104B4000E40BF50B661F771F881F991F1A9469F7EE
:104B500060957095809590959B01AC01BD01CF014A
:104B60000895EE0FFF1F0590F491E02D0994A29F88
:104B7000B001B39FC001A39F700D811D1124911D31
:104B8000B29F700D811D1124911D08950E94B725BB
:104B9000A59F900DB49F900DA49F800D911D112491
:104BA0000895F999FECF92BD81BDF89A992780B5F5
:104BB0000895A8E1B0E042E050E00C940526262FCD
:104BC000F999FECF92BD81BDF89A019700B4021603
:104BD00039F01FBA20BD0FB6F894FA9AF99A0FBEB1
:104BE00008950396272F0E94E0250E94DF25252F98
:104BF0000E94E025242F0C94E0250196272F0E9487
:104C0000E0250C94DF25DC01CB01FC01F999FECFF6
:104C100006C0F2BDE1BDF89A319600B40D92415044
:0A4C20005040B8F70895F894FFCF54
:104C2A0093F4F731333294C6343500000000019909
:104C3A0001019A01049B0115022808641E140A3214
:104C4A001EA01EFD1EDE1EDA1ED61E01F4F79335C7
:104C5A0034C6E200E900EA00B500B600B700CD00AC
:104C6A008301CC008A0192019401210223022402C9
:104C7A002502260227022A02B300B4006F00700040
:104C8A00818283E200E900EA00B500B600B700CDF0
:104C9A00008301CC008A019201940121022302249B
:104CAA00022502260227022A02B300B4006F00700E
:044CBA000081828370
:00000001FF
